{
  "_format": "hh-sol-artifact-1",
  "contractName": "CertificateSharing",
  "sourceName": "contracts/CertificateSharing.sol",
  "abi": [
    {
      "inputs": [
        {
          "internalType": "address",
          "name": "_nftContractAddress",
          "type": "address"
        }
      ],
      "stateMutability": "nonpayable",
      "type": "constructor"
    },
    {
      "anonymous": false,
      "inputs": [
        {
          "indexed": true,
          "internalType": "address",
          "name": "student",
          "type": "address"
        },
        {
          "indexed": true,
          "internalType": "address",
          "name": "verifier",
          "type": "address"
        },
        {
          "indexed": false,
          "internalType": "uint256",
          "name": "certificateId",
          "type": "uint256"
        }
      ],
      "name": "CertificateAccessRevoked",
      "type": "event"
    },
    {
      "anonymous": false,
      "inputs": [
        {
          "indexed": true,
          "internalType": "address",
          "name": "student",
          "type": "address"
        },
        {
          "indexed": true,
          "internalType": "address",
          "name": "verifier",
          "type": "address"
        },
        {
          "indexed": false,
          "internalType": "uint256",
          "name": "certificateId",
          "type": "uint256"
        }
      ],
      "name": "CertificateShared",
      "type": "event"
    },
    {
      "inputs": [
        {
          "internalType": "address",
          "name": "student",
          "type": "address"
        },
        {
          "internalType": "address",
          "name": "verifier",
          "type": "address"
        },
        {
          "internalType": "uint256",
          "name": "certificateId",
          "type": "uint256"
        }
      ],
      "name": "hasAccessToCertificate",
      "outputs": [
        {
          "internalType": "bool",
          "name": "",
          "type": "bool"
        }
      ],
      "stateMutability": "view",
      "type": "function"
    },
    {
      "inputs": [],
      "name": "nftContractAddress",
      "outputs": [
        {
          "internalType": "address",
          "name": "",
          "type": "address"
        }
      ],
      "stateMutability": "view",
      "type": "function"
    },
    {
      "inputs": [],
      "name": "owner",
      "outputs": [
        {
          "internalType": "address",
          "name": "",
          "type": "address"
        }
      ],
      "stateMutability": "view",
      "type": "function"
    },
    {
      "inputs": [
        {
          "internalType": "address",
          "name": "verifier",
          "type": "address"
        },
        {
          "internalType": "uint256",
          "name": "certificateId",
          "type": "uint256"
        }
      ],
      "name": "revokeCertificateAccess",
      "outputs": [],
      "stateMutability": "nonpayable",
      "type": "function"
    },
    {
      "inputs": [
        {
          "internalType": "address",
          "name": "verifier",
          "type": "address"
        },
        {
          "internalType": "uint256[]",
          "name": "certificateIds",
          "type": "uint256[]"
        }
      ],
      "name": "shareCertificatesList",
      "outputs": [],
      "stateMutability": "nonpayable",
      "type": "function"
    },
    {
      "inputs": [
        {
          "internalType": "bytes32",
          "name": "",
          "type": "bytes32"
        }
      ],
      "name": "sharedCertificates",
      "outputs": [
        {
          "internalType": "address",
          "name": "student",
          "type": "address"
        },
        {
          "internalType": "address",
          "name": "verifier",
          "type": "address"
        },
        {
          "internalType": "uint256",
          "name": "certificateId",
          "type": "uint256"
        }
      ],
      "stateMutability": "view",
      "type": "function"
    }
  ],
  "bytecode": "0x608060405234801561001057600080fd5b506040516200101b3803806200101b8339818101604052810190610034919061011e565b80600260006101000a81548173ffffffffffffffffffffffffffffffffffffffff021916908373ffffffffffffffffffffffffffffffffffffffff160217905550336000806101000a81548173ffffffffffffffffffffffffffffffffffffffff021916908373ffffffffffffffffffffffffffffffffffffffff1602179055505061014b565b600080fd5b600073ffffffffffffffffffffffffffffffffffffffff82169050919050565b60006100eb826100c0565b9050919050565b6100fb816100e0565b811461010657600080fd5b50565b600081519050610118816100f2565b92915050565b600060208284031215610134576101336100bb565b5b600061014284828501610109565b91505092915050565b610ec0806200015b6000396000f3fe608060405234801561001057600080fd5b50600436106100625760003560e01c806302710400146100675780632724d0481461009757806348d64e82146100c957806377840990146100e55780638da5cb5b14610101578063aae282e11461011f575b600080fd5b610081600480360381019061007c9190610893565b61013d565b60405161008e9190610901565b60405180910390f35b6100b160048036038101906100ac9190610952565b610192565b6040516100c09392919061099d565b60405180910390f35b6100e360048036038101906100de91906109d4565b6101fc565b005b6100ff60048036038101906100fa9190610a79565b610467565b005b6101096104b1565b6040516101169190610ad9565b60405180910390f35b6101276104d5565b6040516101349190610ad9565b60405180910390f35b60008084848460405160200161015593929190610b5d565b6040516020818303038152906040528051906020012090506000600160008381526020019081526020016000206002015414159150509392505050565b60016020528060005260406000206000915090508060000160009054906101000a900473ffffffffffffffffffffffffffffffffffffffff16908060010160009054906101000a900473ffffffffffffffffffffffffffffffffffffffff16908060020154905083565b33818173ffffffffffffffffffffffffffffffffffffffff16600260009054906101000a900473ffffffffffffffffffffffffffffffffffffffff1673ffffffffffffffffffffffffffffffffffffffff16636352211e836040518263ffffffff1660e01b81526004016102709190610b9a565b602060405180830381865afa15801561028d573d6000803e3d6000fd5b505050506040513d601f19601f820116820180604052508101906102b19190610bca565b73ffffffffffffffffffffffffffffffffffffffff1614610307576040517f08c379a00000000000000000000000000000000000000000000000000000000081526004016102fe90610c7a565b60405180910390fd5b600033858560405160200161031e93929190610b5d565b604051602081830303815290604052805190602001209050600060016000838152602001908152602001600020600201540361038f576040517f08c379a000000000000000000000000000000000000000000000000000000000815260040161038690610d0c565b60405180910390fd5b60016000828152602001908152602001600020600080820160006101000a81549073ffffffffffffffffffffffffffffffffffffffff02191690556001820160006101000a81549073ffffffffffffffffffffffffffffffffffffffff0219169055600282016000905550508473ffffffffffffffffffffffffffffffffffffffff163373ffffffffffffffffffffffffffffffffffffffff167f2960c9aeee3ad5b2fa543b19f440e5e8cc84cf3670f8f8b0820e0ececb6d828c866040516104589190610b9a565b60405180910390a35050505050565b60005b828290508110156104ab576104988484848481811061048c5761048b610d2c565b5b905060200201356104fb565b80806104a390610d8a565b91505061046a565b50505050565b60008054906101000a900473ffffffffffffffffffffffffffffffffffffffff1681565b600260009054906101000a900473ffffffffffffffffffffffffffffffffffffffff1681565b33818173ffffffffffffffffffffffffffffffffffffffff16600260009054906101000a900473ffffffffffffffffffffffffffffffffffffffff1673ffffffffffffffffffffffffffffffffffffffff16636352211e836040518263ffffffff1660e01b815260040161056f9190610b9a565b602060405180830381865afa15801561058c573d6000803e3d6000fd5b505050506040513d601f19601f820116820180604052508101906105b09190610bca565b73ffffffffffffffffffffffffffffffffffffffff1614610606576040517f08c379a00000000000000000000000000000000000000000000000000000000081526004016105fd90610c7a565b60405180910390fd5b600033858560405160200161061d93929190610b5d565b604051602081830303815290604052805190602001209050600060016000838152602001908152602001600020600201541461068e576040517f08c379a000000000000000000000000000000000000000000000000000000000815260040161068590610e6a565b60405180910390fd5b600060405180606001604052803373ffffffffffffffffffffffffffffffffffffffff1681526020018773ffffffffffffffffffffffffffffffffffffffff168152602001868152509050806001600084815260200190815260200160002060008201518160000160006101000a81548173ffffffffffffffffffffffffffffffffffffffff021916908373ffffffffffffffffffffffffffffffffffffffff16021790555060208201518160010160006101000a81548173ffffffffffffffffffffffffffffffffffffffff021916908373ffffffffffffffffffffffffffffffffffffffff160217905550604082015181600201559050508573ffffffffffffffffffffffffffffffffffffffff163373ffffffffffffffffffffffffffffffffffffffff167fefdcfd2cbdc24cbc4339a598434f89ff7442c0a4151474e61b68da789f4c4b94876040516107e59190610b9a565b60405180910390a3505050505050565b600080fd5b600080fd5b600073ffffffffffffffffffffffffffffffffffffffff82169050919050565b600061082a826107ff565b9050919050565b61083a8161081f565b811461084557600080fd5b50565b60008135905061085781610831565b92915050565b6000819050919050565b6108708161085d565b811461087b57600080fd5b50565b60008135905061088d81610867565b92915050565b6000806000606084860312156108ac576108ab6107f5565b5b60006108ba86828701610848565b93505060206108cb86828701610848565b92505060406108dc8682870161087e565b9150509250925092565b60008115159050919050565b6108fb816108e6565b82525050565b600060208201905061091660008301846108f2565b92915050565b6000819050919050565b61092f8161091c565b811461093a57600080fd5b50565b60008135905061094c81610926565b92915050565b600060208284031215610968576109676107f5565b5b60006109768482850161093d565b91505092915050565b6109888161081f565b82525050565b6109978161085d565b82525050565b60006060820190506109b2600083018661097f565b6109bf602083018561097f565b6109cc604083018461098e565b949350505050565b600080604083850312156109eb576109ea6107f5565b5b60006109f985828601610848565b9250506020610a0a8582860161087e565b9150509250929050565b600080fd5b600080fd5b600080fd5b60008083601f840112610a3957610a38610a14565b5b8235905067ffffffffffffffff811115610a5657610a55610a19565b5b602083019150836020820283011115610a7257610a71610a1e565b5b9250929050565b600080600060408486031215610a9257610a916107f5565b5b6000610aa086828701610848565b935050602084013567ffffffffffffffff811115610ac157610ac06107fa565b5b610acd86828701610a23565b92509250509250925092565b6000602082019050610aee600083018461097f565b92915050565b60008160601b9050919050565b6000610b0c82610af4565b9050919050565b6000610b1e82610b01565b9050919050565b610b36610b318261081f565b610b13565b82525050565b6000819050919050565b610b57610b528261085d565b610b3c565b82525050565b6000610b698286610b25565b601482019150610b798285610b25565b601482019150610b898284610b46565b602082019150819050949350505050565b6000602082019050610baf600083018461098e565b92915050565b600081519050610bc481610831565b92915050565b600060208284031215610be057610bdf6107f5565b5b6000610bee84828501610bb5565b91505092915050565b600082825260208201905092915050565b7f436572746966696361746553686172696e673a20596f7520617265206e6f742060008201527f746865206f776e6572206f662074686973206365727469666963617465000000602082015250565b6000610c64603d83610bf7565b9150610c6f82610c08565b604082019050919050565b60006020820190508181036000830152610c9381610c57565b9050919050565b7f436572746966696361746553686172696e673a2043657274696669636174652060008201527f6973206e6f742073686172656420776974682074686973207665726966696572602082015250565b6000610cf6604083610bf7565b9150610d0182610c9a565b604082019050919050565b60006020820190508181036000830152610d2581610ce9565b9050919050565b7f4e487b7100000000000000000000000000000000000000000000000000000000600052603260045260246000fd5b7f4e487b7100000000000000000000000000000000000000000000000000000000600052601160045260246000fd5b6000610d958261085d565b91507fffffffffffffffffffffffffffffffffffffffffffffffffffffffffffffffff8203610dc757610dc6610d5b565b5b600182019050919050565b7f436572746966696361746553686172696e673a2043657274696669636174652060008201527f616c72656164792073686172656420776974682074686973207665726966696560208201527f7200000000000000000000000000000000000000000000000000000000000000604082015250565b6000610e54604183610bf7565b9150610e5f82610dd2565b606082019050919050565b60006020820190508181036000830152610e8381610e47565b905091905056fea26469706673582212208c68912a956682f2dbd46aee1bd4a889e9d3fba7793a14bb31920fc5581c6c7464736f6c63430008130033",
  "linkReferences": {},
  "deployedLinkReferences": {}
}