{
  "_format": "hh-sol-artifact-1",
  "contractName": "NFTicket",
  "sourceName": "contracts/NFTicket.sol",
  "abi": [
    {
      "inputs": [
        {
          "internalType": "address",
          "name": "_admin",
          "type": "address"
        },
        {
          "internalType": "address",
          "name": "portfolioAddress",
          "type": "address"
        }
      ],
      "stateMutability": "nonpayable",
      "type": "constructor"
    },
    {
      "anonymous": false,
      "inputs": [
        {
          "indexed": true,
          "internalType": "address",
          "name": "owner",
          "type": "address"
        },
        {
          "indexed": true,
          "internalType": "address",
          "name": "approved",
          "type": "address"
        },
        {
          "indexed": true,
          "internalType": "uint256",
          "name": "tokenId",
          "type": "uint256"
        }
      ],
      "name": "Approval",
      "type": "event"
    },
    {
      "anonymous": false,
      "inputs": [
        {
          "indexed": true,
          "internalType": "address",
          "name": "owner",
          "type": "address"
        },
        {
          "indexed": true,
          "internalType": "address",
          "name": "operator",
          "type": "address"
        },
        {
          "indexed": false,
          "internalType": "bool",
          "name": "approved",
          "type": "bool"
        }
      ],
      "name": "ApprovalForAll",
      "type": "event"
    },
    {
      "anonymous": false,
      "inputs": [
        {
          "indexed": false,
          "internalType": "uint256",
          "name": "_fromTokenId",
          "type": "uint256"
        },
        {
          "indexed": false,
          "internalType": "uint256",
          "name": "_toTokenId",
          "type": "uint256"
        }
      ],
      "name": "BatchMetadataUpdate",
      "type": "event"
    },
    {
      "anonymous": false,
      "inputs": [
        {
          "indexed": false,
          "internalType": "uint256",
          "name": "_tokenId",
          "type": "uint256"
        }
      ],
      "name": "MetadataUpdate",
      "type": "event"
    },
    {
      "anonymous": false,
      "inputs": [
        {
          "indexed": true,
          "internalType": "bytes32",
          "name": "role",
          "type": "bytes32"
        },
        {
          "indexed": true,
          "internalType": "bytes32",
          "name": "previousAdminRole",
          "type": "bytes32"
        },
        {
          "indexed": true,
          "internalType": "bytes32",
          "name": "newAdminRole",
          "type": "bytes32"
        }
      ],
      "name": "RoleAdminChanged",
      "type": "event"
    },
    {
      "anonymous": false,
      "inputs": [
        {
          "indexed": true,
          "internalType": "bytes32",
          "name": "role",
          "type": "bytes32"
        },
        {
          "indexed": true,
          "internalType": "address",
          "name": "account",
          "type": "address"
        },
        {
          "indexed": true,
          "internalType": "address",
          "name": "sender",
          "type": "address"
        }
      ],
      "name": "RoleGranted",
      "type": "event"
    },
    {
      "anonymous": false,
      "inputs": [
        {
          "indexed": true,
          "internalType": "bytes32",
          "name": "role",
          "type": "bytes32"
        },
        {
          "indexed": true,
          "internalType": "address",
          "name": "account",
          "type": "address"
        },
        {
          "indexed": true,
          "internalType": "address",
          "name": "sender",
          "type": "address"
        }
      ],
      "name": "RoleRevoked",
      "type": "event"
    },
    {
      "anonymous": false,
      "inputs": [
        {
          "indexed": true,
          "internalType": "address",
          "name": "from",
          "type": "address"
        },
        {
          "indexed": true,
          "internalType": "address",
          "name": "to",
          "type": "address"
        },
        {
          "indexed": true,
          "internalType": "uint256",
          "name": "tokenId",
          "type": "uint256"
        }
      ],
      "name": "Transfer",
      "type": "event"
    },
    {
      "inputs": [],
      "name": "ADMIN_ROLE",
      "outputs": [
        {
          "internalType": "bytes32",
          "name": "",
          "type": "bytes32"
        }
      ],
      "stateMutability": "view",
      "type": "function"
    },
    {
      "inputs": [],
      "name": "DEFAULT_ADMIN_ROLE",
      "outputs": [
        {
          "internalType": "bytes32",
          "name": "",
          "type": "bytes32"
        }
      ],
      "stateMutability": "view",
      "type": "function"
    },
    {
      "inputs": [],
      "name": "ISSUER_ROLE",
      "outputs": [
        {
          "internalType": "bytes32",
          "name": "",
          "type": "bytes32"
        }
      ],
      "stateMutability": "view",
      "type": "function"
    },
    {
      "inputs": [],
      "name": "OWNER_ROLE",
      "outputs": [
        {
          "internalType": "bytes32",
          "name": "",
          "type": "bytes32"
        }
      ],
      "stateMutability": "view",
      "type": "function"
    },
    {
      "inputs": [
        {
          "internalType": "address",
          "name": "to",
          "type": "address"
        },
        {
          "internalType": "uint256",
          "name": "tokenId",
          "type": "uint256"
        }
      ],
      "name": "approve",
      "outputs": [],
      "stateMutability": "nonpayable",
      "type": "function"
    },
    {
      "inputs": [
        {
          "internalType": "address",
          "name": "issuerAddr",
          "type": "address"
        }
      ],
      "name": "approveIssuer",
      "outputs": [],
      "stateMutability": "nonpayable",
      "type": "function"
    },
    {
      "inputs": [
        {
          "internalType": "address",
          "name": "owner",
          "type": "address"
        }
      ],
      "name": "balanceOf",
      "outputs": [
        {
          "internalType": "uint256",
          "name": "",
          "type": "uint256"
        }
      ],
      "stateMutability": "view",
      "type": "function"
    },
    {
      "inputs": [
        {
          "internalType": "uint256",
          "name": "tokenId",
          "type": "uint256"
        }
      ],
      "name": "getApproved",
      "outputs": [
        {
          "internalType": "address",
          "name": "",
          "type": "address"
        }
      ],
      "stateMutability": "view",
      "type": "function"
    },
    {
      "inputs": [
        {
          "internalType": "address",
          "name": "user",
          "type": "address"
        }
      ],
      "name": "getRole",
      "outputs": [
        {
          "internalType": "string",
          "name": "",
          "type": "string"
        }
      ],
      "stateMutability": "view",
      "type": "function"
    },
    {
      "inputs": [
        {
          "internalType": "bytes32",
          "name": "role",
          "type": "bytes32"
        }
      ],
      "name": "getRoleAdmin",
      "outputs": [
        {
          "internalType": "bytes32",
          "name": "",
          "type": "bytes32"
        }
      ],
      "stateMutability": "view",
      "type": "function"
    },
    {
      "inputs": [
        {
          "internalType": "bytes32",
          "name": "role",
          "type": "bytes32"
        },
        {
          "internalType": "address",
          "name": "account",
          "type": "address"
        }
      ],
      "name": "grantRole",
      "outputs": [],
      "stateMutability": "nonpayable",
      "type": "function"
    },
    {
      "inputs": [
        {
          "internalType": "bytes32",
          "name": "role",
          "type": "bytes32"
        },
        {
          "internalType": "address",
          "name": "account",
          "type": "address"
        }
      ],
      "name": "hasRole",
      "outputs": [
        {
          "internalType": "bool",
          "name": "",
          "type": "bool"
        }
      ],
      "stateMutability": "view",
      "type": "function"
    },
    {
      "inputs": [
        {
          "internalType": "address",
          "name": "owner",
          "type": "address"
        },
        {
          "internalType": "address",
          "name": "operator",
          "type": "address"
        }
      ],
      "name": "isApprovedForAll",
      "outputs": [
        {
          "internalType": "bool",
          "name": "",
          "type": "bool"
        }
      ],
      "stateMutability": "view",
      "type": "function"
    },
    {
      "inputs": [
        {
          "internalType": "address",
          "name": "issuerAddr",
          "type": "address"
        }
      ],
      "name": "isIssuerApproved",
      "outputs": [
        {
          "internalType": "bool",
          "name": "",
          "type": "bool"
        }
      ],
      "stateMutability": "view",
      "type": "function"
    },
    {
      "inputs": [
        {
          "internalType": "address",
          "name": "to",
          "type": "address"
        },
        {
          "internalType": "string",
          "name": "uri",
          "type": "string"
        }
      ],
      "name": "mint",
      "outputs": [],
      "stateMutability": "nonpayable",
      "type": "function"
    },
    {
      "inputs": [],
      "name": "name",
      "outputs": [
        {
          "internalType": "string",
          "name": "",
          "type": "string"
        }
      ],
      "stateMutability": "view",
      "type": "function"
    },
    {
      "inputs": [
        {
          "internalType": "uint256",
          "name": "tokenId",
          "type": "uint256"
        }
      ],
      "name": "ownerOf",
      "outputs": [
        {
          "internalType": "address",
          "name": "",
          "type": "address"
        }
      ],
      "stateMutability": "view",
      "type": "function"
    },
    {
      "inputs": [
        {
          "internalType": "string",
          "name": "name",
          "type": "string"
        },
        {
          "internalType": "string",
          "name": "pfpURI",
          "type": "string"
        },
        {
          "internalType": "string",
          "name": "email",
          "type": "string"
        }
      ],
      "name": "registerIssuer",
      "outputs": [],
      "stateMutability": "nonpayable",
      "type": "function"
    },
    {
      "inputs": [
        {
          "internalType": "bytes32",
          "name": "role",
          "type": "bytes32"
        },
        {
          "internalType": "address",
          "name": "account",
          "type": "address"
        }
      ],
      "name": "renounceRole",
      "outputs": [],
      "stateMutability": "nonpayable",
      "type": "function"
    },
    {
      "inputs": [
        {
          "internalType": "bytes32",
          "name": "role",
          "type": "bytes32"
        },
        {
          "internalType": "address",
          "name": "account",
          "type": "address"
        }
      ],
      "name": "revokeRole",
      "outputs": [],
      "stateMutability": "nonpayable",
      "type": "function"
    },
    {
      "inputs": [
        {
          "internalType": "address",
          "name": "from",
          "type": "address"
        },
        {
          "internalType": "address",
          "name": "to",
          "type": "address"
        },
        {
          "internalType": "uint256",
          "name": "tokenId",
          "type": "uint256"
        }
      ],
      "name": "safeTransferFrom",
      "outputs": [],
      "stateMutability": "nonpayable",
      "type": "function"
    },
    {
      "inputs": [
        {
          "internalType": "address",
          "name": "from",
          "type": "address"
        },
        {
          "internalType": "address",
          "name": "to",
          "type": "address"
        },
        {
          "internalType": "uint256",
          "name": "tokenId",
          "type": "uint256"
        },
        {
          "internalType": "bytes",
          "name": "data",
          "type": "bytes"
        }
      ],
      "name": "safeTransferFrom",
      "outputs": [],
      "stateMutability": "nonpayable",
      "type": "function"
    },
    {
      "inputs": [
        {
          "internalType": "address",
          "name": "operator",
          "type": "address"
        },
        {
          "internalType": "bool",
          "name": "approved",
          "type": "bool"
        }
      ],
      "name": "setApprovalForAll",
      "outputs": [],
      "stateMutability": "nonpayable",
      "type": "function"
    },
    {
      "inputs": [
        {
          "internalType": "bytes4",
          "name": "interfaceId",
          "type": "bytes4"
        }
      ],
      "name": "supportsInterface",
      "outputs": [
        {
          "internalType": "bool",
          "name": "",
          "type": "bool"
        }
      ],
      "stateMutability": "view",
      "type": "function"
    },
    {
      "inputs": [],
      "name": "symbol",
      "outputs": [
        {
          "internalType": "string",
          "name": "",
          "type": "string"
        }
      ],
      "stateMutability": "view",
      "type": "function"
    },
    {
      "inputs": [
        {
          "internalType": "uint256",
          "name": "tokenId",
          "type": "uint256"
        }
      ],
      "name": "tokenURI",
      "outputs": [
        {
          "internalType": "string",
          "name": "",
          "type": "string"
        }
      ],
      "stateMutability": "view",
      "type": "function"
    },
    {
      "inputs": [
        {
          "internalType": "address",
          "name": "from",
          "type": "address"
        },
        {
          "internalType": "address",
          "name": "to",
          "type": "address"
        },
        {
          "internalType": "uint256",
          "name": "tokenId",
          "type": "uint256"
        }
      ],
      "name": "transferFrom",
      "outputs": [],
      "stateMutability": "nonpayable",
      "type": "function"
    }
  ],
  "bytecode": "0x60806040523480156200001157600080fd5b5060405162004d2338038062004d23833981810160405281019062000037919062000345565b6040518060400160405280600881526020017f4e465469636b65740000000000000000000000000000000000000000000000008152506040518060400160405280600881526020017f6e667469636b65740000000000000000000000000000000000000000000000008152508160009081620000b4919062000606565b508060019081620000c6919062000606565b505050620000fb7fb19546dff01e856fb3f010c267a7b1c60363cf8a4664e21cc89c26224620214e336200017660201b60201c565b6200012d7fa49807205ce4d355092ef5a8a18f56e8913cf4a201fbe287825b095693c21775836200017660201b60201c565b80600960006101000a81548173ffffffffffffffffffffffffffffffffffffffff021916908373ffffffffffffffffffffffffffffffffffffffff1602179055505050620006ed565b6200018882826200026860201b60201c565b620002645760016007600084815260200190815260200160002060000160008373ffffffffffffffffffffffffffffffffffffffff1673ffffffffffffffffffffffffffffffffffffffff16815260200190815260200160002060006101000a81548160ff02191690831515021790555062000209620002d360201b60201c565b73ffffffffffffffffffffffffffffffffffffffff168173ffffffffffffffffffffffffffffffffffffffff16837f2f8788117e7eff1d82e926ec794901d17c78024a50270940304540a733656f0d60405160405180910390a45b5050565b60006007600084815260200190815260200160002060000160008373ffffffffffffffffffffffffffffffffffffffff1673ffffffffffffffffffffffffffffffffffffffff16815260200190815260200160002060009054906101000a900460ff16905092915050565b600033905090565b600080fd5b600073ffffffffffffffffffffffffffffffffffffffff82169050919050565b60006200030d82620002e0565b9050919050565b6200031f8162000300565b81146200032b57600080fd5b50565b6000815190506200033f8162000314565b92915050565b600080604083850312156200035f576200035e620002db565b5b60006200036f858286016200032e565b925050602062000382858286016200032e565b9150509250929050565b600081519050919050565b7f4e487b7100000000000000000000000000000000000000000000000000000000600052604160045260246000fd5b7f4e487b7100000000000000000000000000000000000000000000000000000000600052602260045260246000fd5b600060028204905060018216806200040e57607f821691505b602082108103620004245762000423620003c6565b5b50919050565b60008190508160005260206000209050919050565b60006020601f8301049050919050565b600082821b905092915050565b6000600883026200048e7fffffffffffffffffffffffffffffffffffffffffffffffffffffffffffffffff826200044f565b6200049a86836200044f565b95508019841693508086168417925050509392505050565b6000819050919050565b6000819050919050565b6000620004e7620004e1620004db84620004b2565b620004bc565b620004b2565b9050919050565b6000819050919050565b6200050383620004c6565b6200051b6200051282620004ee565b8484546200045c565b825550505050565b600090565b6200053262000523565b6200053f818484620004f8565b505050565b5b8181101562000567576200055b60008262000528565b60018101905062000545565b5050565b601f821115620005b65762000580816200042a565b6200058b846200043f565b810160208510156200059b578190505b620005b3620005aa856200043f565b83018262000544565b50505b505050565b600082821c905092915050565b6000620005db60001984600802620005bb565b1980831691505092915050565b6000620005f68383620005c8565b9150826002028217905092915050565b62000611826200038c565b67ffffffffffffffff8111156200062d576200062c62000397565b5b620006398254620003f5565b620006468282856200056b565b600060209050601f8311600181146200067e576000841562000669578287015190505b620006758582620005e8565b865550620006e5565b601f1984166200068e866200042a565b60005b82811015620006b85784890151825560018201915060208501945060208101905062000691565b86831015620006d85784890151620006d4601f891682620005c8565b8355505b6001600288020188555050505b505050505050565b61462680620006fd6000396000f3fe608060405234801561001057600080fd5b50600436106101a95760003560e01c806375b238fc116100f9578063a22cb46511610097578063d0def52111610071578063d0def521146104f0578063d547741f1461050c578063e58378bb14610528578063e985e9c514610546576101a9565b8063a22cb46514610488578063b88d4fde146104a4578063c87b56dd146104c0576101a9565b806382deb86e116100d357806382deb86e1461040057806391d148541461041c57806395d89b411461044c578063a217fddf1461046a576101a9565b806375b238fc146103a85780638096373e146103c657806382aefa24146103e2576101a9565b80632f2ff15d11610166578063442767331161014057806344276733146102e85780636352211e1461031857806370a082311461034857806371dc2a9a14610378576101a9565b80632f2ff15d1461029457806336568abe146102b057806342842e0e146102cc576101a9565b806301ffc9a7146101ae57806306fdde03146101de578063081812fc146101fc578063095ea7b31461022c57806323b872dd14610248578063248a9ca314610264575b600080fd5b6101c860048036038101906101c39190612c1d565b610576565b6040516101d59190612c65565b60405180910390f35b6101e6610588565b6040516101f39190612d10565b60405180910390f35b61021660048036038101906102119190612d68565b61061a565b6040516102239190612dd6565b60405180910390f35b61024660048036038101906102419190612e1d565b610660565b005b610262600480360381019061025d9190612e5d565b610777565b005b61027e60048036038101906102799190612ee6565b6107d7565b60405161028b9190612f22565b60405180910390f35b6102ae60048036038101906102a99190612f3d565b6107f7565b005b6102ca60048036038101906102c59190612f3d565b610818565b005b6102e660048036038101906102e19190612e5d565b61089b565b005b61030260048036038101906102fd9190612f7d565b6108bb565b60405161030f9190612d10565b60405180910390f35b610332600480360381019061032d9190612d68565b610ab0565b60405161033f9190612dd6565b60405180910390f35b610362600480360381019061035d9190612f7d565b610b36565b60405161036f9190612fb9565b60405180910390f35b610392600480360381019061038d9190612f7d565b610bed565b60405161039f9190612c65565b60405180910390f35b6103b0610c46565b6040516103bd9190612f22565b60405180910390f35b6103e060048036038101906103db9190613109565b610c6a565b005b6103ea610e4f565b6040516103f79190612f22565b60405180910390f35b61041a60048036038101906104159190612f7d565b610e73565b005b61043660048036038101906104319190612f3d565b611031565b6040516104439190612c65565b60405180910390f35b61045461109c565b6040516104619190612d10565b60405180910390f35b61047261112e565b60405161047f9190612f22565b60405180910390f35b6104a2600480360381019061049d91906131dc565b611135565b005b6104be60048036038101906104b991906132bd565b61114b565b005b6104da60048036038101906104d59190612d68565b6111ad565b6040516104e79190612d10565b60405180910390f35b61050a60048036038101906105059190613340565b6112bf565b005b61052660048036038101906105219190612f3d565b6114d7565b005b6105306114f8565b60405161053d9190612f22565b60405180910390f35b610560600480360381019061055b919061339c565b61151c565b60405161056d9190612c65565b60405180910390f35b6000610581826115b0565b9050919050565b6060600080546105979061340b565b80601f01602080910402602001604051908101604052809291908181526020018280546105c39061340b565b80156106105780601f106105e557610100808354040283529160200191610610565b820191906000526020600020905b8154815290600101906020018083116105f357829003601f168201915b5050505050905090565b60006106258261162a565b6004600083815260200190815260200160002060009054906101000a900473ffffffffffffffffffffffffffffffffffffffff169050919050565b600061066b82610ab0565b90508073ffffffffffffffffffffffffffffffffffffffff168373ffffffffffffffffffffffffffffffffffffffff16036106db576040517f08c379a00000000000000000000000000000000000000000000000000000000081526004016106d2906134ae565b60405180910390fd5b8073ffffffffffffffffffffffffffffffffffffffff166106fa611675565b73ffffffffffffffffffffffffffffffffffffffff161480610729575061072881610723611675565b61151c565b5b610768576040517f08c379a000000000000000000000000000000000000000000000000000000000815260040161075f90613540565b60405180910390fd5b610772838361167d565b505050565b610788610782611675565b82611736565b6107c7576040517f08c379a00000000000000000000000000000000000000000000000000000000081526004016107be906135d2565b60405180910390fd5b6107d28383836117cb565b505050565b600060076000838152602001908152602001600020600101549050919050565b610800826107d7565b61080981611ac4565b6108138383611ad8565b505050565b610820611675565b73ffffffffffffffffffffffffffffffffffffffff168173ffffffffffffffffffffffffffffffffffffffff161461088d576040517f08c379a000000000000000000000000000000000000000000000000000000000815260040161088490613664565b60405180910390fd5b6108978282611bb9565b5050565b6108b68383836040518060200160405280600081525061114b565b505050565b60606000600960009054906101000a900473ffffffffffffffffffffffffffffffffffffffff1673ffffffffffffffffffffffffffffffffffffffff166382f7d392846040518263ffffffff1660e01b815260040161091a9190612dd6565b602060405180830381865afa158015610937573d6000803e3d6000fd5b505050506040513d601f19601f8201168201806040525081019061095b9190613699565b905060405160200161096c906136f7565b60405160208183030381529060405280519060200120600a60008573ffffffffffffffffffffffffffffffffffffffff1673ffffffffffffffffffffffffffffffffffffffff1681526020019081526020016000206000016040516020016109d491906137a4565b6040516020818303038152906040528051906020012014610a2d576040518060400160405280600681526020017f4953535545520000000000000000000000000000000000000000000000000000815250915050610aab565b8015610a71576040518060400160405280600781526020017f53545544454e5400000000000000000000000000000000000000000000000000815250915050610aab565b6040518060400160405280600481526020017f4e4f4e45000000000000000000000000000000000000000000000000000000008152509150505b919050565b600080610abc83611c9b565b9050600073ffffffffffffffffffffffffffffffffffffffff168173ffffffffffffffffffffffffffffffffffffffff1603610b2d576040517f08c379a0000000000000000000000000000000000000000000000000000000008152600401610b2490613807565b60405180910390fd5b80915050919050565b60008073ffffffffffffffffffffffffffffffffffffffff168273ffffffffffffffffffffffffffffffffffffffff1603610ba6576040517f08c379a0000000000000000000000000000000000000000000000000000000008152600401610b9d90613899565b60405180910390fd5b600360008373ffffffffffffffffffffffffffffffffffffffff1673ffffffffffffffffffffffffffffffffffffffff168152602001908152602001600020549050919050565b6000600a60008373ffffffffffffffffffffffffffffffffffffffff1673ffffffffffffffffffffffffffffffffffffffff16815260200190815260200160002060030160009054906101000a900460ff169050919050565b7fa49807205ce4d355092ef5a8a18f56e8913cf4a201fbe287825b095693c2177581565b604051602001610c79906136f7565b6040516020818303038152906040528051906020012083604051602001610ca091906138ea565b6040516020818303038152906040528051906020012003610cf6576040517f08c379a0000000000000000000000000000000000000000000000000000000008152600401610ced9061394d565b60405180910390fd5b604051602001610d05906136f7565b6040516020818303038152906040528051906020012081604051602001610d2c91906138ea565b6040516020818303038152906040528051906020012003610d82576040517f08c379a0000000000000000000000000000000000000000000000000000000008152600401610d79906139b9565b60405180910390fd5b604051806080016040528084815260200183815260200182815260200160001515815250600a60003373ffffffffffffffffffffffffffffffffffffffff1673ffffffffffffffffffffffffffffffffffffffff1681526020019081526020016000206000820151816000019081610dfa9190613b70565b506020820151816001019081610e109190613b70565b506040820151816002019081610e269190613b70565b5060608201518160030160006101000a81548160ff021916908315150217905550905050505050565b7f114e74f6ea3bd819998f78687bfcb11b140da08e9b7d222fa9c1f1ba1f2aa12281565b610e9d7fa49807205ce4d355092ef5a8a18f56e8913cf4a201fbe287825b095693c2177533611031565b610edc576040517f08c379a0000000000000000000000000000000000000000000000000000000008152600401610ed390613c8e565b60405180910390fd5b604051602001610eeb906136f7565b60405160208183030381529060405280519060200120600a60008373ffffffffffffffffffffffffffffffffffffffff1673ffffffffffffffffffffffffffffffffffffffff168152602001908152602001600020600001604051602001610f5391906137a4565b6040516020818303038152906040528051906020012003610fa9576040517f08c379a0000000000000000000000000000000000000000000000000000000008152600401610fa090613cfa565b60405180910390fd5b610fd37f114e74f6ea3bd819998f78687bfcb11b140da08e9b7d222fa9c1f1ba1f2aa12282611ad8565b6001600a60008373ffffffffffffffffffffffffffffffffffffffff1673ffffffffffffffffffffffffffffffffffffffff16815260200190815260200160002060030160006101000a81548160ff02191690831515021790555050565b60006007600084815260200190815260200160002060000160008373ffffffffffffffffffffffffffffffffffffffff1673ffffffffffffffffffffffffffffffffffffffff16815260200190815260200160002060009054906101000a900460ff16905092915050565b6060600180546110ab9061340b565b80601f01602080910402602001604051908101604052809291908181526020018280546110d79061340b565b80156111245780601f106110f957610100808354040283529160200191611124565b820191906000526020600020905b81548152906001019060200180831161110757829003601f168201915b5050505050905090565b6000801b81565b611147611140611675565b8383611cd8565b5050565b61115c611156611675565b83611736565b61119b576040517f08c379a0000000000000000000000000000000000000000000000000000000008152600401611192906135d2565b60405180910390fd5b6111a784848484611e44565b50505050565b60606111b88261162a565b60006006600084815260200190815260200160002080546111d89061340b565b80601f01602080910402602001604051908101604052809291908181526020018280546112049061340b565b80156112515780601f1061122657610100808354040283529160200191611251565b820191906000526020600020905b81548152906001019060200180831161123457829003601f168201915b505050505090506000611262611ea0565b905060008151036112775781925050506112ba565b6000825111156112ac578082604051602001611294929190613d1a565b604051602081830303815290604052925050506112ba565b6112b584611eb7565b925050505b919050565b6112e97f114e74f6ea3bd819998f78687bfcb11b140da08e9b7d222fa9c1f1ba1f2aa12233611031565b611328576040517f08c379a000000000000000000000000000000000000000000000000000000000815260040161131f90613d8a565b60405180910390fd5b600073ffffffffffffffffffffffffffffffffffffffff168273ffffffffffffffffffffffffffffffffffffffff1603611397576040517f08c379a000000000000000000000000000000000000000000000000000000000815260040161138e90613df6565b60405180910390fd5b6040516020016113a6906136f7565b60405160208183030381529060405280519060200120816040516020016113cd91906138ea565b6040516020818303038152906040528051906020012003611423576040517f08c379a000000000000000000000000000000000000000000000000000000000815260040161141a90613e62565b60405180910390fd5b600061142d611f1f565b90506114398382611f43565b6114438183611f61565b600960009054906101000a900473ffffffffffffffffffffffffffffffffffffffff1673ffffffffffffffffffffffffffffffffffffffff16631c4338a384836040518363ffffffff1660e01b81526004016114a0929190613e82565b600060405180830381600087803b1580156114ba57600080fd5b505af11580156114ce573d6000803e3d6000fd5b50505050505050565b6114e0826107d7565b6114e981611ac4565b6114f38383611bb9565b505050565b7fb19546dff01e856fb3f010c267a7b1c60363cf8a4664e21cc89c26224620214e81565b6000600560008473ffffffffffffffffffffffffffffffffffffffff1673ffffffffffffffffffffffffffffffffffffffff16815260200190815260200160002060008373ffffffffffffffffffffffffffffffffffffffff1673ffffffffffffffffffffffffffffffffffffffff16815260200190815260200160002060009054906101000a900460ff16905092915050565b60007f7965db0b000000000000000000000000000000000000000000000000000000007bffffffffffffffffffffffffffffffffffffffffffffffffffffffff1916827bffffffffffffffffffffffffffffffffffffffffffffffffffffffff19161480611623575061162282612005565b5b9050919050565b61163381612066565b611672576040517f08c379a000000000000000000000000000000000000000000000000000000000815260040161166990613807565b60405180910390fd5b50565b600033905090565b816004600083815260200190815260200160002060006101000a81548173ffffffffffffffffffffffffffffffffffffffff021916908373ffffffffffffffffffffffffffffffffffffffff160217905550808273ffffffffffffffffffffffffffffffffffffffff166116f083610ab0565b73ffffffffffffffffffffffffffffffffffffffff167f8c5be1e5ebec7d5bd14f71427d1e84f3dd0314c0f7b2291e5b200ac8c7c3b92560405160405180910390a45050565b60008061174283610ab0565b90508073ffffffffffffffffffffffffffffffffffffffff168473ffffffffffffffffffffffffffffffffffffffff1614806117845750611783818561151c565b5b806117c257508373ffffffffffffffffffffffffffffffffffffffff166117aa8461061a565b73ffffffffffffffffffffffffffffffffffffffff16145b91505092915050565b8273ffffffffffffffffffffffffffffffffffffffff166117eb82610ab0565b73ffffffffffffffffffffffffffffffffffffffff1614611841576040517f08c379a000000000000000000000000000000000000000000000000000000000815260040161183890613f1d565b60405180910390fd5b600073ffffffffffffffffffffffffffffffffffffffff168273ffffffffffffffffffffffffffffffffffffffff16036118b0576040517f08c379a00000000000000000000000000000000000000000000000000000000081526004016118a790613faf565b60405180910390fd5b6118bd83838360016120a7565b8273ffffffffffffffffffffffffffffffffffffffff166118dd82610ab0565b73ffffffffffffffffffffffffffffffffffffffff1614611933576040517f08c379a000000000000000000000000000000000000000000000000000000000815260040161192a90613f1d565b60405180910390fd5b6004600082815260200190815260200160002060006101000a81549073ffffffffffffffffffffffffffffffffffffffff02191690556001600360008573ffffffffffffffffffffffffffffffffffffffff1673ffffffffffffffffffffffffffffffffffffffff168152602001908152602001600020600082825403925050819055506001600360008473ffffffffffffffffffffffffffffffffffffffff1673ffffffffffffffffffffffffffffffffffffffff16815260200190815260200160002060008282540192505081905550816002600083815260200190815260200160002060006101000a81548173ffffffffffffffffffffffffffffffffffffffff021916908373ffffffffffffffffffffffffffffffffffffffff160217905550808273ffffffffffffffffffffffffffffffffffffffff168473ffffffffffffffffffffffffffffffffffffffff167fddf252ad1be2c89b69c2b068fc378daa952ba7f163c4a11628f55a4df523b3ef60405160405180910390a4611abf8383836001612128565b505050565b611ad581611ad0611675565b61212e565b50565b611ae28282611031565b611bb55760016007600084815260200190815260200160002060000160008373ffffffffffffffffffffffffffffffffffffffff1673ffffffffffffffffffffffffffffffffffffffff16815260200190815260200160002060006101000a81548160ff021916908315150217905550611b5a611675565b73ffffffffffffffffffffffffffffffffffffffff168173ffffffffffffffffffffffffffffffffffffffff16837f2f8788117e7eff1d82e926ec794901d17c78024a50270940304540a733656f0d60405160405180910390a45b5050565b611bc38282611031565b15611c975760006007600084815260200190815260200160002060000160008373ffffffffffffffffffffffffffffffffffffffff1673ffffffffffffffffffffffffffffffffffffffff16815260200190815260200160002060006101000a81548160ff021916908315150217905550611c3c611675565b73ffffffffffffffffffffffffffffffffffffffff168173ffffffffffffffffffffffffffffffffffffffff16837ff6391f5c32d9c69d2a47ea670b442974b53935d1edc7fd64eb21e047a839171b60405160405180910390a45b5050565b60006002600083815260200190815260200160002060009054906101000a900473ffffffffffffffffffffffffffffffffffffffff169050919050565b8173ffffffffffffffffffffffffffffffffffffffff168373ffffffffffffffffffffffffffffffffffffffff1603611d46576040517f08c379a0000000000000000000000000000000000000000000000000000000008152600401611d3d9061401b565b60405180910390fd5b80600560008573ffffffffffffffffffffffffffffffffffffffff1673ffffffffffffffffffffffffffffffffffffffff16815260200190815260200160002060008473ffffffffffffffffffffffffffffffffffffffff1673ffffffffffffffffffffffffffffffffffffffff16815260200190815260200160002060006101000a81548160ff0219169083151502179055508173ffffffffffffffffffffffffffffffffffffffff168373ffffffffffffffffffffffffffffffffffffffff167f17307eab39ab6107e8899845ad3d59bd9653f200f220920489ca2b5937696c3183604051611e379190612c65565b60405180910390a3505050565b611e4f8484846117cb565b611e5b848484846121b3565b611e9a576040517f08c379a0000000000000000000000000000000000000000000000000000000008152600401611e91906140ad565b60405180910390fd5b50505050565b606060405180602001604052806000815250905090565b6060611ec28261162a565b6000611ecc611ea0565b90506000815111611eec5760405180602001604052806000815250611f17565b80611ef68461233a565b604051602001611f07929190613d1a565b6040516020818303038152906040525b915050919050565b6000600160086000828254611f3491906140fc565b92505081905550600854905090565b611f5d828260405180602001604052806000815250612408565b5050565b611f6a82612066565b611fa9576040517f08c379a0000000000000000000000000000000000000000000000000000000008152600401611fa0906141a2565b60405180910390fd5b80600660008481526020019081526020016000209081611fc99190613b70565b507ff8e1a15aba9398e019f0b49df1a4fde98ee17ae345cb5f6b5e2c27f5033e8ce782604051611ff99190612fb9565b60405180910390a15050565b6000634906490660e01b7bffffffffffffffffffffffffffffffffffffffffffffffffffffffff1916827bffffffffffffffffffffffffffffffffffffffffffffffffffffffff1916148061205f575061205e82612463565b5b9050919050565b60008073ffffffffffffffffffffffffffffffffffffffff1661208883611c9b565b73ffffffffffffffffffffffffffffffffffffffff1614159050919050565b600073ffffffffffffffffffffffffffffffffffffffff168473ffffffffffffffffffffffffffffffffffffffff1614612116576040517f08c379a000000000000000000000000000000000000000000000000000000000815260040161210d9061420e565b60405180910390fd5b61212284848484612545565b50505050565b50505050565b6121388282611031565b6121af576121458161254b565b6121538360001c6020612578565b6040516020016121649291906142c6565b6040516020818303038152906040526040517f08c379a00000000000000000000000000000000000000000000000000000000081526004016121a69190612d10565b60405180910390fd5b5050565b60006121d48473ffffffffffffffffffffffffffffffffffffffff166127b4565b1561232d578373ffffffffffffffffffffffffffffffffffffffff1663150b7a026121fd611675565b8786866040518563ffffffff1660e01b815260040161221f9493929190614355565b6020604051808303816000875af192505050801561225b57506040513d601f19601f8201168201806040525081019061225891906143b6565b60015b6122dd573d806000811461228b576040519150601f19603f3d011682016040523d82523d6000602084013e612290565b606091505b5060008151036122d5576040517f08c379a00000000000000000000000000000000000000000000000000000000081526004016122cc906140ad565b60405180910390fd5b805181602001fd5b63150b7a0260e01b7bffffffffffffffffffffffffffffffffffffffffffffffffffffffff1916817bffffffffffffffffffffffffffffffffffffffffffffffffffffffff191614915050612332565b600190505b949350505050565b606060006001612349846127d7565b01905060008167ffffffffffffffff81111561236857612367612fde565b5b6040519080825280601f01601f19166020018201604052801561239a5781602001600182028036833780820191505090505b509050600082602001820190505b6001156123fd578080600190039150507f3031323334353637383961626364656600000000000000000000000000000000600a86061a8153600a85816123f1576123f06143e3565b5b049450600085036123a8575b819350505050919050565b612412838361292a565b61241f60008484846121b3565b61245e576040517f08c379a0000000000000000000000000000000000000000000000000000000008152600401612455906140ad565b60405180910390fd5b505050565b60007f80ac58cd000000000000000000000000000000000000000000000000000000007bffffffffffffffffffffffffffffffffffffffffffffffffffffffff1916827bffffffffffffffffffffffffffffffffffffffffffffffffffffffff1916148061252e57507f5b5e139f000000000000000000000000000000000000000000000000000000007bffffffffffffffffffffffffffffffffffffffffffffffffffffffff1916827bffffffffffffffffffffffffffffffffffffffffffffffffffffffff1916145b8061253e575061253d82612b47565b5b9050919050565b50505050565b60606125718273ffffffffffffffffffffffffffffffffffffffff16601460ff16612578565b9050919050565b60606000600283600261258b9190614412565b61259591906140fc565b67ffffffffffffffff8111156125ae576125ad612fde565b5b6040519080825280601f01601f1916602001820160405280156125e05781602001600182028036833780820191505090505b5090507f30000000000000000000000000000000000000000000000000000000000000008160008151811061261857612617614454565b5b60200101907effffffffffffffffffffffffffffffffffffffffffffffffffffffffffffff1916908160001a9053507f78000000000000000000000000000000000000000000000000000000000000008160018151811061267c5761267b614454565b5b60200101907effffffffffffffffffffffffffffffffffffffffffffffffffffffffffffff1916908160001a905350600060018460026126bc9190614412565b6126c691906140fc565b90505b6001811115612766577f3031323334353637383961626364656600000000000000000000000000000000600f86166010811061270857612707614454565b5b1a60f81b82828151811061271f5761271e614454565b5b60200101907effffffffffffffffffffffffffffffffffffffffffffffffffffffffffffff1916908160001a905350600485901c94508061275f90614483565b90506126c9565b50600084146127aa576040517f08c379a00000000000000000000000000000000000000000000000000000000081526004016127a1906144f8565b60405180910390fd5b8091505092915050565b6000808273ffffffffffffffffffffffffffffffffffffffff163b119050919050565b600080600090507a184f03e93ff9f4daa797ed6e38ed64bf6a1f0100000000000000008310612835577a184f03e93ff9f4daa797ed6e38ed64bf6a1f010000000000000000838161282b5761282a6143e3565b5b0492506040810190505b6d04ee2d6d415b85acef81000000008310612872576d04ee2d6d415b85acef81000000008381612868576128676143e3565b5b0492506020810190505b662386f26fc1000083106128a157662386f26fc100008381612897576128966143e3565b5b0492506010810190505b6305f5e10083106128ca576305f5e10083816128c0576128bf6143e3565b5b0492506008810190505b61271083106128ef5761271083816128e5576128e46143e3565b5b0492506004810190505b606483106129125760648381612908576129076143e3565b5b0492506002810190505b600a8310612921576001810190505b80915050919050565b600073ffffffffffffffffffffffffffffffffffffffff168273ffffffffffffffffffffffffffffffffffffffff1603612999576040517f08c379a000000000000000000000000000000000000000000000000000000000815260040161299090614564565b60405180910390fd5b6129a281612066565b156129e2576040517f08c379a00000000000000000000000000000000000000000000000000000000081526004016129d9906145d0565b60405180910390fd5b6129f06000838360016120a7565b6129f981612066565b15612a39576040517f08c379a0000000000000000000000000000000000000000000000000000000008152600401612a30906145d0565b60405180910390fd5b6001600360008473ffffffffffffffffffffffffffffffffffffffff1673ffffffffffffffffffffffffffffffffffffffff16815260200190815260200160002060008282540192505081905550816002600083815260200190815260200160002060006101000a81548173ffffffffffffffffffffffffffffffffffffffff021916908373ffffffffffffffffffffffffffffffffffffffff160217905550808273ffffffffffffffffffffffffffffffffffffffff16600073ffffffffffffffffffffffffffffffffffffffff167fddf252ad1be2c89b69c2b068fc378daa952ba7f163c4a11628f55a4df523b3ef60405160405180910390a4612b43600083836001612128565b5050565b60007f01ffc9a7000000000000000000000000000000000000000000000000000000007bffffffffffffffffffffffffffffffffffffffffffffffffffffffff1916827bffffffffffffffffffffffffffffffffffffffffffffffffffffffff1916149050919050565b6000604051905090565b600080fd5b600080fd5b60007fffffffff0000000000000000000000000000000000000000000000000000000082169050919050565b612bfa81612bc5565b8114612c0557600080fd5b50565b600081359050612c1781612bf1565b92915050565b600060208284031215612c3357612c32612bbb565b5b6000612c4184828501612c08565b91505092915050565b60008115159050919050565b612c5f81612c4a565b82525050565b6000602082019050612c7a6000830184612c56565b92915050565b600081519050919050565b600082825260208201905092915050565b60005b83811015612cba578082015181840152602081019050612c9f565b60008484015250505050565b6000601f19601f8301169050919050565b6000612ce282612c80565b612cec8185612c8b565b9350612cfc818560208601612c9c565b612d0581612cc6565b840191505092915050565b60006020820190508181036000830152612d2a8184612cd7565b905092915050565b6000819050919050565b612d4581612d32565b8114612d5057600080fd5b50565b600081359050612d6281612d3c565b92915050565b600060208284031215612d7e57612d7d612bbb565b5b6000612d8c84828501612d53565b91505092915050565b600073ffffffffffffffffffffffffffffffffffffffff82169050919050565b6000612dc082612d95565b9050919050565b612dd081612db5565b82525050565b6000602082019050612deb6000830184612dc7565b92915050565b612dfa81612db5565b8114612e0557600080fd5b50565b600081359050612e1781612df1565b92915050565b60008060408385031215612e3457612e33612bbb565b5b6000612e4285828601612e08565b9250506020612e5385828601612d53565b9150509250929050565b600080600060608486031215612e7657612e75612bbb565b5b6000612e8486828701612e08565b9350506020612e9586828701612e08565b9250506040612ea686828701612d53565b9150509250925092565b6000819050919050565b612ec381612eb0565b8114612ece57600080fd5b50565b600081359050612ee081612eba565b92915050565b600060208284031215612efc57612efb612bbb565b5b6000612f0a84828501612ed1565b91505092915050565b612f1c81612eb0565b82525050565b6000602082019050612f376000830184612f13565b92915050565b60008060408385031215612f5457612f53612bbb565b5b6000612f6285828601612ed1565b9250506020612f7385828601612e08565b9150509250929050565b600060208284031215612f9357612f92612bbb565b5b6000612fa184828501612e08565b91505092915050565b612fb381612d32565b82525050565b6000602082019050612fce6000830184612faa565b92915050565b600080fd5b600080fd5b7f4e487b7100000000000000000000000000000000000000000000000000000000600052604160045260246000fd5b61301682612cc6565b810181811067ffffffffffffffff8211171561303557613034612fde565b5b80604052505050565b6000613048612bb1565b9050613054828261300d565b919050565b600067ffffffffffffffff82111561307457613073612fde565b5b61307d82612cc6565b9050602081019050919050565b82818337600083830152505050565b60006130ac6130a784613059565b61303e565b9050828152602081018484840111156130c8576130c7612fd9565b5b6130d384828561308a565b509392505050565b600082601f8301126130f0576130ef612fd4565b5b8135613100848260208601613099565b91505092915050565b60008060006060848603121561312257613121612bbb565b5b600084013567ffffffffffffffff8111156131405761313f612bc0565b5b61314c868287016130db565b935050602084013567ffffffffffffffff81111561316d5761316c612bc0565b5b613179868287016130db565b925050604084013567ffffffffffffffff81111561319a57613199612bc0565b5b6131a6868287016130db565b9150509250925092565b6131b981612c4a565b81146131c457600080fd5b50565b6000813590506131d6816131b0565b92915050565b600080604083850312156131f3576131f2612bbb565b5b600061320185828601612e08565b9250506020613212858286016131c7565b9150509250929050565b600067ffffffffffffffff82111561323757613236612fde565b5b61324082612cc6565b9050602081019050919050565b600061326061325b8461321c565b61303e565b90508281526020810184848401111561327c5761327b612fd9565b5b61328784828561308a565b509392505050565b600082601f8301126132a4576132a3612fd4565b5b81356132b484826020860161324d565b91505092915050565b600080600080608085870312156132d7576132d6612bbb565b5b60006132e587828801612e08565b94505060206132f687828801612e08565b935050604061330787828801612d53565b925050606085013567ffffffffffffffff81111561332857613327612bc0565b5b6133348782880161328f565b91505092959194509250565b6000806040838503121561335757613356612bbb565b5b600061336585828601612e08565b925050602083013567ffffffffffffffff81111561338657613385612bc0565b5b613392858286016130db565b9150509250929050565b600080604083850312156133b3576133b2612bbb565b5b60006133c185828601612e08565b92505060206133d285828601612e08565b9150509250929050565b7f4e487b7100000000000000000000000000000000000000000000000000000000600052602260045260246000fd5b6000600282049050600182168061342357607f821691505b602082108103613436576134356133dc565b5b50919050565b7f4552433732313a20617070726f76616c20746f2063757272656e74206f776e6560008201527f7200000000000000000000000000000000000000000000000000000000000000602082015250565b6000613498602183612c8b565b91506134a38261343c565b604082019050919050565b600060208201905081810360008301526134c78161348b565b9050919050565b7f4552433732313a20617070726f76652063616c6c6572206973206e6f7420746f60008201527f6b656e206f776e6572206f7220617070726f76656420666f7220616c6c000000602082015250565b600061352a603d83612c8b565b9150613535826134ce565b604082019050919050565b600060208201905081810360008301526135598161351d565b9050919050565b7f4552433732313a2063616c6c6572206973206e6f7420746f6b656e206f776e6560008201527f72206f7220617070726f76656400000000000000000000000000000000000000602082015250565b60006135bc602d83612c8b565b91506135c782613560565b604082019050919050565b600060208201905081810360008301526135eb816135af565b9050919050565b7f416363657373436f6e74726f6c3a2063616e206f6e6c792072656e6f756e636560008201527f20726f6c657320666f722073656c660000000000000000000000000000000000602082015250565b600061364e602f83612c8b565b9150613659826135f2565b604082019050919050565b6000602082019050818103600083015261367d81613641565b9050919050565b600081519050613693816131b0565b92915050565b6000602082840312156136af576136ae612bbb565b5b60006136bd84828501613684565b91505092915050565b600081905092915050565b50565b60006136e16000836136c6565b91506136ec826136d1565b600082019050919050565b6000613702826136d4565b9150819050919050565b60008190508160005260206000209050919050565b6000815461372e8161340b565b61373881866136c6565b9450600182166000811461375357600181146137685761379b565b60ff198316865281151582028601935061379b565b6137718561370c565b60005b8381101561379357815481890152600182019150602081019050613774565b838801955050505b50505092915050565b60006137b08284613721565b915081905092915050565b7f4552433732313a20696e76616c696420746f6b656e2049440000000000000000600082015250565b60006137f1601883612c8b565b91506137fc826137bb565b602082019050919050565b60006020820190508181036000830152613820816137e4565b9050919050565b7f4552433732313a2061646472657373207a65726f206973206e6f74206120766160008201527f6c6964206f776e65720000000000000000000000000000000000000000000000602082015250565b6000613883602983612c8b565b915061388e82613827565b604082019050919050565b600060208201905081810360008301526138b281613876565b9050919050565b60006138c482612c80565b6138ce81856136c6565b93506138de818560208601612c9c565b80840191505092915050565b60006138f682846138b9565b915081905092915050565b7f456d707479206e616d652e000000000000000000000000000000000000000000600082015250565b6000613937600b83612c8b565b915061394282613901565b602082019050919050565b600060208201905081810360008301526139668161392a565b9050919050565b7f456d70747920656d61696c2e0000000000000000000000000000000000000000600082015250565b60006139a3600c83612c8b565b91506139ae8261396d565b602082019050919050565b600060208201905081810360008301526139d281613996565b9050919050565b60006020601f8301049050919050565b600082821b905092915050565b600060088302613a267fffffffffffffffffffffffffffffffffffffffffffffffffffffffffffffffff826139e9565b613a3086836139e9565b95508019841693508086168417925050509392505050565b6000819050919050565b6000613a6d613a68613a6384612d32565b613a48565b612d32565b9050919050565b6000819050919050565b613a8783613a52565b613a9b613a9382613a74565b8484546139f6565b825550505050565b600090565b613ab0613aa3565b613abb818484613a7e565b505050565b5b81811015613adf57613ad4600082613aa8565b600181019050613ac1565b5050565b601f821115613b2457613af58161370c565b613afe846139d9565b81016020851015613b0d578190505b613b21613b19856139d9565b830182613ac0565b50505b505050565b600082821c905092915050565b6000613b4760001984600802613b29565b1980831691505092915050565b6000613b608383613b36565b9150826002028217905092915050565b613b7982612c80565b67ffffffffffffffff811115613b9257613b91612fde565b5b613b9c825461340b565b613ba7828285613ae3565b600060209050601f831160018114613bda5760008415613bc8578287015190505b613bd28582613b54565b865550613c3a565b601f198416613be88661370c565b60005b82811015613c1057848901518255600182019150602085019450602081019050613beb565b86831015613c2d5784890151613c29601f891682613b36565b8355505b6001600288020188555050505b505050505050565b7f43616c6c6572206973206e6f7420616e2061646d696e2e000000000000000000600082015250565b6000613c78601783612c8b565b9150613c8382613c42565b602082019050919050565b60006020820190508181036000830152613ca781613c6b565b9050919050565b7f497373756572206e6f7420726567697374657265642e00000000000000000000600082015250565b6000613ce4601683612c8b565b9150613cef82613cae565b602082019050919050565b60006020820190508181036000830152613d1381613cd7565b9050919050565b6000613d2682856138b9565b9150613d3282846138b9565b91508190509392505050565b7f43616c6c6572206973206e6f7420616e206973737565722e0000000000000000600082015250565b6000613d74601883612c8b565b9150613d7f82613d3e565b602082019050919050565b60006020820190508181036000830152613da381613d67565b9050919050565b7f43616e6e6f74206d696e7420746f203020616464726573732e00000000000000600082015250565b6000613de0601983612c8b565b9150613deb82613daa565b602082019050919050565b60006020820190508181036000830152613e0f81613dd3565b9050919050565b7f456d707479205552492e00000000000000000000000000000000000000000000600082015250565b6000613e4c600a83612c8b565b9150613e5782613e16565b602082019050919050565b60006020820190508181036000830152613e7b81613e3f565b9050919050565b6000604082019050613e976000830185612dc7565b613ea46020830184612faa565b9392505050565b7f4552433732313a207472616e736665722066726f6d20696e636f72726563742060008201527f6f776e6572000000000000000000000000000000000000000000000000000000602082015250565b6000613f07602583612c8b565b9150613f1282613eab565b604082019050919050565b60006020820190508181036000830152613f3681613efa565b9050919050565b7f4552433732313a207472616e7366657220746f20746865207a65726f2061646460008201527f7265737300000000000000000000000000000000000000000000000000000000602082015250565b6000613f99602483612c8b565b9150613fa482613f3d565b604082019050919050565b60006020820190508181036000830152613fc881613f8c565b9050919050565b7f4552433732313a20617070726f766520746f2063616c6c657200000000000000600082015250565b6000614005601983612c8b565b915061401082613fcf565b602082019050919050565b6000602082019050818103600083015261403481613ff8565b9050919050565b7f4552433732313a207472616e7366657220746f206e6f6e20455243373231526560008201527f63656976657220696d706c656d656e7465720000000000000000000000000000602082015250565b6000614097603283612c8b565b91506140a28261403b565b604082019050919050565b600060208201905081810360008301526140c68161408a565b9050919050565b7f4e487b7100000000000000000000000000000000000000000000000000000000600052601160045260246000fd5b600061410782612d32565b915061411283612d32565b925082820190508082111561412a576141296140cd565b5b92915050565b7f45524337323155524953746f726167653a2055524920736574206f66206e6f6e60008201527f6578697374656e7420746f6b656e000000000000000000000000000000000000602082015250565b600061418c602e83612c8b565b915061419782614130565b604082019050919050565b600060208201905081810360008301526141bb8161417f565b9050919050565b7f4e6f207065726d697373696f6e20746f207472616e736665722e000000000000600082015250565b60006141f8601a83612c8b565b9150614203826141c2565b602082019050919050565b60006020820190508181036000830152614227816141eb565b9050919050565b7f416363657373436f6e74726f6c3a206163636f756e7420000000000000000000600082015250565b60006142646017836136c6565b915061426f8261422e565b601782019050919050565b7f206973206d697373696e6720726f6c6520000000000000000000000000000000600082015250565b60006142b06011836136c6565b91506142bb8261427a565b601182019050919050565b60006142d182614257565b91506142dd82856138b9565b91506142e8826142a3565b91506142f482846138b9565b91508190509392505050565b600081519050919050565b600082825260208201905092915050565b600061432782614300565b614331818561430b565b9350614341818560208601612c9c565b61434a81612cc6565b840191505092915050565b600060808201905061436a6000830187612dc7565b6143776020830186612dc7565b6143846040830185612faa565b8181036060830152614396818461431c565b905095945050505050565b6000815190506143b081612bf1565b92915050565b6000602082840312156143cc576143cb612bbb565b5b60006143da848285016143a1565b91505092915050565b7f4e487b7100000000000000000000000000000000000000000000000000000000600052601260045260246000fd5b600061441d82612d32565b915061442883612d32565b925082820261443681612d32565b9150828204841483151761444d5761444c6140cd565b5b5092915050565b7f4e487b7100000000000000000000000000000000000000000000000000000000600052603260045260246000fd5b600061448e82612d32565b9150600082036144a1576144a06140cd565b5b600182039050919050565b7f537472696e67733a20686578206c656e67746820696e73756666696369656e74600082015250565b60006144e2602083612c8b565b91506144ed826144ac565b602082019050919050565b60006020820190508181036000830152614511816144d5565b9050919050565b7f4552433732313a206d696e7420746f20746865207a65726f2061646472657373600082015250565b600061454e602083612c8b565b915061455982614518565b602082019050919050565b6000602082019050818103600083015261457d81614541565b9050919050565b7f4552433732313a20746f6b656e20616c7265616479206d696e74656400000000600082015250565b60006145ba601c83612c8b565b91506145c582614584565b602082019050919050565b600060208201905081810360008301526145e9816145ad565b905091905056fea2646970667358221220723d4dafe4d9527b087de614238778337c8bb3f88bd4c5feee6710625ed515ce64736f6c63430008130033",
  "linkReferences": {},
  "deployedLinkReferences": {}
}