{
  "_format": "hh-sol-artifact-1",
  "contractName": "NFTicket",
  "sourceName": "contracts/NFTicket.sol",
  "abi": [
    {
      "inputs": [
        {
          "internalType": "address",
          "name": "_admin",
          "type": "address"
        },
        {
          "internalType": "address",
          "name": "portfolioAddress",
          "type": "address"
        }
      ],
      "stateMutability": "nonpayable",
      "type": "constructor"
    },
    {
      "anonymous": false,
      "inputs": [
        {
          "indexed": true,
          "internalType": "address",
          "name": "owner",
          "type": "address"
        },
        {
          "indexed": true,
          "internalType": "address",
          "name": "approved",
          "type": "address"
        },
        {
          "indexed": true,
          "internalType": "uint256",
          "name": "tokenId",
          "type": "uint256"
        }
      ],
      "name": "Approval",
      "type": "event"
    },
    {
      "anonymous": false,
      "inputs": [
        {
          "indexed": true,
          "internalType": "address",
          "name": "owner",
          "type": "address"
        },
        {
          "indexed": true,
          "internalType": "address",
          "name": "operator",
          "type": "address"
        },
        {
          "indexed": false,
          "internalType": "bool",
          "name": "approved",
          "type": "bool"
        }
      ],
      "name": "ApprovalForAll",
      "type": "event"
    },
    {
      "anonymous": false,
      "inputs": [
        {
          "indexed": false,
          "internalType": "uint256",
          "name": "_fromTokenId",
          "type": "uint256"
        },
        {
          "indexed": false,
          "internalType": "uint256",
          "name": "_toTokenId",
          "type": "uint256"
        }
      ],
      "name": "BatchMetadataUpdate",
      "type": "event"
    },
    {
      "anonymous": false,
      "inputs": [
        {
          "indexed": false,
          "internalType": "uint256",
          "name": "_tokenId",
          "type": "uint256"
        }
      ],
      "name": "MetadataUpdate",
      "type": "event"
    },
    {
      "anonymous": false,
      "inputs": [
        {
          "indexed": true,
          "internalType": "bytes32",
          "name": "role",
          "type": "bytes32"
        },
        {
          "indexed": true,
          "internalType": "bytes32",
          "name": "previousAdminRole",
          "type": "bytes32"
        },
        {
          "indexed": true,
          "internalType": "bytes32",
          "name": "newAdminRole",
          "type": "bytes32"
        }
      ],
      "name": "RoleAdminChanged",
      "type": "event"
    },
    {
      "anonymous": false,
      "inputs": [
        {
          "indexed": true,
          "internalType": "bytes32",
          "name": "role",
          "type": "bytes32"
        },
        {
          "indexed": true,
          "internalType": "address",
          "name": "account",
          "type": "address"
        },
        {
          "indexed": true,
          "internalType": "address",
          "name": "sender",
          "type": "address"
        }
      ],
      "name": "RoleGranted",
      "type": "event"
    },
    {
      "anonymous": false,
      "inputs": [
        {
          "indexed": true,
          "internalType": "bytes32",
          "name": "role",
          "type": "bytes32"
        },
        {
          "indexed": true,
          "internalType": "address",
          "name": "account",
          "type": "address"
        },
        {
          "indexed": true,
          "internalType": "address",
          "name": "sender",
          "type": "address"
        }
      ],
      "name": "RoleRevoked",
      "type": "event"
    },
    {
      "anonymous": false,
      "inputs": [
        {
          "indexed": true,
          "internalType": "address",
          "name": "from",
          "type": "address"
        },
        {
          "indexed": true,
          "internalType": "address",
          "name": "to",
          "type": "address"
        },
        {
          "indexed": true,
          "internalType": "uint256",
          "name": "tokenId",
          "type": "uint256"
        }
      ],
      "name": "Transfer",
      "type": "event"
    },
    {
      "inputs": [],
      "name": "ADMIN_ROLE",
      "outputs": [
        {
          "internalType": "bytes32",
          "name": "",
          "type": "bytes32"
        }
      ],
      "stateMutability": "view",
      "type": "function"
    },
    {
      "inputs": [],
      "name": "DEFAULT_ADMIN_ROLE",
      "outputs": [
        {
          "internalType": "bytes32",
          "name": "",
          "type": "bytes32"
        }
      ],
      "stateMutability": "view",
      "type": "function"
    },
    {
      "inputs": [],
      "name": "ISSUER_ROLE",
      "outputs": [
        {
          "internalType": "bytes32",
          "name": "",
          "type": "bytes32"
        }
      ],
      "stateMutability": "view",
      "type": "function"
    },
    {
      "inputs": [],
      "name": "OWNER_ROLE",
      "outputs": [
        {
          "internalType": "bytes32",
          "name": "",
          "type": "bytes32"
        }
      ],
      "stateMutability": "view",
      "type": "function"
    },
    {
      "inputs": [],
      "name": "PortfolioInstance",
      "outputs": [
        {
          "internalType": "contract Portfolio",
          "name": "",
          "type": "address"
        }
      ],
      "stateMutability": "view",
      "type": "function"
    },
    {
      "inputs": [
        {
          "internalType": "address",
          "name": "to",
          "type": "address"
        },
        {
          "internalType": "uint256",
          "name": "tokenId",
          "type": "uint256"
        }
      ],
      "name": "approve",
      "outputs": [],
      "stateMutability": "nonpayable",
      "type": "function"
    },
    {
      "inputs": [
        {
          "internalType": "address",
          "name": "issuerAddr",
          "type": "address"
        }
      ],
      "name": "approveIssuer",
      "outputs": [],
      "stateMutability": "nonpayable",
      "type": "function"
    },
    {
      "inputs": [
        {
          "internalType": "address",
          "name": "owner",
          "type": "address"
        }
      ],
      "name": "balanceOf",
      "outputs": [
        {
          "internalType": "uint256",
          "name": "",
          "type": "uint256"
        }
      ],
      "stateMutability": "view",
      "type": "function"
    },
    {
      "inputs": [
        {
          "internalType": "uint256",
          "name": "tokenId",
          "type": "uint256"
        }
      ],
      "name": "getApproved",
      "outputs": [
        {
          "internalType": "address",
          "name": "",
          "type": "address"
        }
      ],
      "stateMutability": "view",
      "type": "function"
    },
    {
      "inputs": [
        {
          "internalType": "address",
          "name": "user",
          "type": "address"
        }
      ],
      "name": "getRole",
      "outputs": [
        {
          "internalType": "string",
          "name": "",
          "type": "string"
        }
      ],
      "stateMutability": "view",
      "type": "function"
    },
    {
      "inputs": [
        {
          "internalType": "bytes32",
          "name": "role",
          "type": "bytes32"
        }
      ],
      "name": "getRoleAdmin",
      "outputs": [
        {
          "internalType": "bytes32",
          "name": "",
          "type": "bytes32"
        }
      ],
      "stateMutability": "view",
      "type": "function"
    },
    {
      "inputs": [
        {
          "internalType": "bytes32",
          "name": "role",
          "type": "bytes32"
        },
        {
          "internalType": "address",
          "name": "account",
          "type": "address"
        }
      ],
      "name": "grantRole",
      "outputs": [],
      "stateMutability": "nonpayable",
      "type": "function"
    },
    {
      "inputs": [
        {
          "internalType": "bytes32",
          "name": "role",
          "type": "bytes32"
        },
        {
          "internalType": "address",
          "name": "account",
          "type": "address"
        }
      ],
      "name": "hasRole",
      "outputs": [
        {
          "internalType": "bool",
          "name": "",
          "type": "bool"
        }
      ],
      "stateMutability": "view",
      "type": "function"
    },
    {
      "inputs": [
        {
          "internalType": "address",
          "name": "owner",
          "type": "address"
        },
        {
          "internalType": "address",
          "name": "operator",
          "type": "address"
        }
      ],
      "name": "isApprovedForAll",
      "outputs": [
        {
          "internalType": "bool",
          "name": "",
          "type": "bool"
        }
      ],
      "stateMutability": "view",
      "type": "function"
    },
    {
      "inputs": [
        {
          "internalType": "address",
          "name": "issuerAddr",
          "type": "address"
        }
      ],
      "name": "isIssuerApproved",
      "outputs": [
        {
          "internalType": "bool",
          "name": "",
          "type": "bool"
        }
      ],
      "stateMutability": "view",
      "type": "function"
    },
    {
      "inputs": [
        {
          "internalType": "address",
          "name": "to",
          "type": "address"
        },
        {
          "internalType": "string",
          "name": "uri",
          "type": "string"
        }
      ],
      "name": "mint",
      "outputs": [],
      "stateMutability": "nonpayable",
      "type": "function"
    },
    {
      "inputs": [],
      "name": "name",
      "outputs": [
        {
          "internalType": "string",
          "name": "",
          "type": "string"
        }
      ],
      "stateMutability": "view",
      "type": "function"
    },
    {
      "inputs": [
        {
          "internalType": "uint256",
          "name": "tokenId",
          "type": "uint256"
        }
      ],
      "name": "ownerOf",
      "outputs": [
        {
          "internalType": "address",
          "name": "",
          "type": "address"
        }
      ],
      "stateMutability": "view",
      "type": "function"
    },
    {
      "inputs": [
        {
          "internalType": "string",
          "name": "name",
          "type": "string"
        },
        {
          "internalType": "string",
          "name": "pfpURI",
          "type": "string"
        },
        {
          "internalType": "string",
          "name": "email",
          "type": "string"
        }
      ],
      "name": "registerIssuer",
      "outputs": [],
      "stateMutability": "nonpayable",
      "type": "function"
    },
    {
      "inputs": [
        {
          "internalType": "bytes32",
          "name": "role",
          "type": "bytes32"
        },
        {
          "internalType": "address",
          "name": "account",
          "type": "address"
        }
      ],
      "name": "renounceRole",
      "outputs": [],
      "stateMutability": "nonpayable",
      "type": "function"
    },
    {
      "inputs": [
        {
          "internalType": "bytes32",
          "name": "role",
          "type": "bytes32"
        },
        {
          "internalType": "address",
          "name": "account",
          "type": "address"
        }
      ],
      "name": "revokeRole",
      "outputs": [],
      "stateMutability": "nonpayable",
      "type": "function"
    },
    {
      "inputs": [
        {
          "internalType": "address",
          "name": "from",
          "type": "address"
        },
        {
          "internalType": "address",
          "name": "to",
          "type": "address"
        },
        {
          "internalType": "uint256",
          "name": "tokenId",
          "type": "uint256"
        }
      ],
      "name": "safeTransferFrom",
      "outputs": [],
      "stateMutability": "nonpayable",
      "type": "function"
    },
    {
      "inputs": [
        {
          "internalType": "address",
          "name": "from",
          "type": "address"
        },
        {
          "internalType": "address",
          "name": "to",
          "type": "address"
        },
        {
          "internalType": "uint256",
          "name": "tokenId",
          "type": "uint256"
        },
        {
          "internalType": "bytes",
          "name": "data",
          "type": "bytes"
        }
      ],
      "name": "safeTransferFrom",
      "outputs": [],
      "stateMutability": "nonpayable",
      "type": "function"
    },
    {
      "inputs": [
        {
          "internalType": "address",
          "name": "operator",
          "type": "address"
        },
        {
          "internalType": "bool",
          "name": "approved",
          "type": "bool"
        }
      ],
      "name": "setApprovalForAll",
      "outputs": [],
      "stateMutability": "nonpayable",
      "type": "function"
    },
    {
      "inputs": [
        {
          "internalType": "bytes4",
          "name": "interfaceId",
          "type": "bytes4"
        }
      ],
      "name": "supportsInterface",
      "outputs": [
        {
          "internalType": "bool",
          "name": "",
          "type": "bool"
        }
      ],
      "stateMutability": "view",
      "type": "function"
    },
    {
      "inputs": [],
      "name": "symbol",
      "outputs": [
        {
          "internalType": "string",
          "name": "",
          "type": "string"
        }
      ],
      "stateMutability": "view",
      "type": "function"
    },
    {
      "inputs": [
        {
          "internalType": "uint256",
          "name": "tokenId",
          "type": "uint256"
        }
      ],
      "name": "tokenURI",
      "outputs": [
        {
          "internalType": "string",
          "name": "",
          "type": "string"
        }
      ],
      "stateMutability": "view",
      "type": "function"
    },
    {
      "inputs": [
        {
          "internalType": "address",
          "name": "from",
          "type": "address"
        },
        {
          "internalType": "address",
          "name": "to",
          "type": "address"
        },
        {
          "internalType": "uint256",
          "name": "tokenId",
          "type": "uint256"
        }
      ],
      "name": "transferFrom",
      "outputs": [],
      "stateMutability": "nonpayable",
      "type": "function"
    }
  ],
  "bytecode": "0x60806040523480156200001157600080fd5b5060405162004df238038062004df2833981810160405281019062000037919062000345565b6040518060400160405280600881526020017f4e465469636b65740000000000000000000000000000000000000000000000008152506040518060400160405280600881526020017f6e667469636b65740000000000000000000000000000000000000000000000008152508160009081620000b4919062000606565b508060019081620000c6919062000606565b505050620000fb7fb19546dff01e856fb3f010c267a7b1c60363cf8a4664e21cc89c26224620214e336200017660201b60201c565b6200012d7fa49807205ce4d355092ef5a8a18f56e8913cf4a201fbe287825b095693c21775836200017660201b60201c565b80600860006101000a81548173ffffffffffffffffffffffffffffffffffffffff021916908373ffffffffffffffffffffffffffffffffffffffff1602179055505050620006ed565b6200018882826200026860201b60201c565b620002645760016007600084815260200190815260200160002060000160008373ffffffffffffffffffffffffffffffffffffffff1673ffffffffffffffffffffffffffffffffffffffff16815260200190815260200160002060006101000a81548160ff02191690831515021790555062000209620002d360201b60201c565b73ffffffffffffffffffffffffffffffffffffffff168173ffffffffffffffffffffffffffffffffffffffff16837f2f8788117e7eff1d82e926ec794901d17c78024a50270940304540a733656f0d60405160405180910390a45b5050565b60006007600084815260200190815260200160002060000160008373ffffffffffffffffffffffffffffffffffffffff1673ffffffffffffffffffffffffffffffffffffffff16815260200190815260200160002060009054906101000a900460ff16905092915050565b600033905090565b600080fd5b600073ffffffffffffffffffffffffffffffffffffffff82169050919050565b60006200030d82620002e0565b9050919050565b6200031f8162000300565b81146200032b57600080fd5b50565b6000815190506200033f8162000314565b92915050565b600080604083850312156200035f576200035e620002db565b5b60006200036f858286016200032e565b925050602062000382858286016200032e565b9150509250929050565b600081519050919050565b7f4e487b7100000000000000000000000000000000000000000000000000000000600052604160045260246000fd5b7f4e487b7100000000000000000000000000000000000000000000000000000000600052602260045260246000fd5b600060028204905060018216806200040e57607f821691505b602082108103620004245762000423620003c6565b5b50919050565b60008190508160005260206000209050919050565b60006020601f8301049050919050565b600082821b905092915050565b6000600883026200048e7fffffffffffffffffffffffffffffffffffffffffffffffffffffffffffffffff826200044f565b6200049a86836200044f565b95508019841693508086168417925050509392505050565b6000819050919050565b6000819050919050565b6000620004e7620004e1620004db84620004b2565b620004bc565b620004b2565b9050919050565b6000819050919050565b6200050383620004c6565b6200051b6200051282620004ee565b8484546200045c565b825550505050565b600090565b6200053262000523565b6200053f818484620004f8565b505050565b5b8181101562000567576200055b60008262000528565b60018101905062000545565b5050565b601f821115620005b65762000580816200042a565b6200058b846200043f565b810160208510156200059b578190505b620005b3620005aa856200043f565b83018262000544565b50505b505050565b600082821c905092915050565b6000620005db60001984600802620005bb565b1980831691505092915050565b6000620005f68383620005c8565b9150826002028217905092915050565b62000611826200038c565b67ffffffffffffffff8111156200062d576200062c62000397565b5b620006398254620003f5565b620006468282856200056b565b600060209050601f8311600181146200067e576000841562000669578287015190505b620006758582620005e8565b865550620006e5565b601f1984166200068e866200042a565b60005b82811015620006b85784890151825560018201915060208501945060208101905062000691565b86831015620006d85784890151620006d4601f891682620005c8565b8355505b6001600288020188555050505b505050505050565b6146f580620006fd6000396000f3fe608060405234801561001057600080fd5b50600436106101c45760003560e01c80638096373e116100f9578063a22cb46511610097578063d0def52111610071578063d0def52114610529578063d547741f14610545578063e58378bb14610561578063e985e9c51461057f576101c4565b8063a22cb465146104c1578063b88d4fde146104dd578063c87b56dd146104f9576101c4565b806391d14854116100d357806391d148541461043757806395d89b4114610467578063962ca0b314610485578063a217fddf146104a3576101c4565b80638096373e146103e157806382aefa24146103fd57806382deb86e1461041b576101c4565b806336568abe116101665780636352211e116101405780636352211e1461033357806370a082311461036357806371dc2a9a1461039357806375b238fc146103c3576101c4565b806336568abe146102cb57806342842e0e146102e75780634427673314610303576101c4565b8063095ea7b3116101a2578063095ea7b31461024757806323b872dd14610263578063248a9ca31461027f5780632f2ff15d146102af576101c4565b806301ffc9a7146101c957806306fdde03146101f9578063081812fc14610217575b600080fd5b6101e360048036038101906101de9190612c7c565b6105af565b6040516101f09190612cc4565b60405180910390f35b6102016105c1565b60405161020e9190612d6f565b60405180910390f35b610231600480360381019061022c9190612dc7565b610653565b60405161023e9190612e35565b60405180910390f35b610261600480360381019061025c9190612e7c565b610699565b005b61027d60048036038101906102789190612ebc565b6107b0565b005b61029960048036038101906102949190612f45565b610810565b6040516102a69190612f81565b60405180910390f35b6102c960048036038101906102c49190612f9c565b610830565b005b6102e560048036038101906102e09190612f9c565b610851565b005b61030160048036038101906102fc9190612ebc565b6108d4565b005b61031d60048036038101906103189190612fdc565b6108f4565b60405161032a9190612d6f565b60405180910390f35b61034d60048036038101906103489190612dc7565b610ae9565b60405161035a9190612e35565b60405180910390f35b61037d60048036038101906103789190612fdc565b610b6f565b60405161038a9190613018565b60405180910390f35b6103ad60048036038101906103a89190612fdc565b610c26565b6040516103ba9190612cc4565b60405180910390f35b6103cb610c7f565b6040516103d89190612f81565b60405180910390f35b6103fb60048036038101906103f69190613168565b610ca3565b005b610405610e88565b6040516104129190612f81565b60405180910390f35b61043560048036038101906104309190612fdc565b610eac565b005b610451600480360381019061044c9190612f9c565b61106a565b60405161045e9190612cc4565b60405180910390f35b61046f6110d5565b60405161047c9190612d6f565b60405180910390f35b61048d611167565b60405161049a919061326e565b60405180910390f35b6104ab61118d565b6040516104b89190612f81565b60405180910390f35b6104db60048036038101906104d691906132b5565b611194565b005b6104f760048036038101906104f29190613396565b6111aa565b005b610513600480360381019061050e9190612dc7565b61120c565b6040516105209190612d6f565b60405180910390f35b610543600480360381019061053e9190613419565b61131e565b005b61055f600480360381019061055a9190612f9c565b611536565b005b610569611557565b6040516105769190612f81565b60405180910390f35b61059960048036038101906105949190613475565b61157b565b6040516105a69190612cc4565b60405180910390f35b60006105ba8261160f565b9050919050565b6060600080546105d0906134e4565b80601f01602080910402602001604051908101604052809291908181526020018280546105fc906134e4565b80156106495780601f1061061e57610100808354040283529160200191610649565b820191906000526020600020905b81548152906001019060200180831161062c57829003601f168201915b5050505050905090565b600061065e82611689565b6004600083815260200190815260200160002060009054906101000a900473ffffffffffffffffffffffffffffffffffffffff169050919050565b60006106a482610ae9565b90508073ffffffffffffffffffffffffffffffffffffffff168373ffffffffffffffffffffffffffffffffffffffff1603610714576040517f08c379a000000000000000000000000000000000000000000000000000000000815260040161070b90613587565b60405180910390fd5b8073ffffffffffffffffffffffffffffffffffffffff166107336116d4565b73ffffffffffffffffffffffffffffffffffffffff16148061076257506107618161075c6116d4565b61157b565b5b6107a1576040517f08c379a000000000000000000000000000000000000000000000000000000000815260040161079890613619565b60405180910390fd5b6107ab83836116dc565b505050565b6107c16107bb6116d4565b82611795565b610800576040517f08c379a00000000000000000000000000000000000000000000000000000000081526004016107f7906136ab565b60405180910390fd5b61080b83838361182a565b505050565b600060076000838152602001908152602001600020600101549050919050565b61083982610810565b61084281611b23565b61084c8383611b37565b505050565b6108596116d4565b73ffffffffffffffffffffffffffffffffffffffff168173ffffffffffffffffffffffffffffffffffffffff16146108c6576040517f08c379a00000000000000000000000000000000000000000000000000000000081526004016108bd9061373d565b60405180910390fd5b6108d08282611c18565b5050565b6108ef838383604051806020016040528060008152506111aa565b505050565b60606000600860009054906101000a900473ffffffffffffffffffffffffffffffffffffffff1673ffffffffffffffffffffffffffffffffffffffff166382f7d392846040518263ffffffff1660e01b81526004016109539190612e35565b602060405180830381865afa158015610970573d6000803e3d6000fd5b505050506040513d601f19601f820116820180604052508101906109949190613772565b90506040516020016109a5906137d0565b60405160208183030381529060405280519060200120600a60008573ffffffffffffffffffffffffffffffffffffffff1673ffffffffffffffffffffffffffffffffffffffff168152602001908152602001600020600001604051602001610a0d919061387d565b6040516020818303038152906040528051906020012014610a66576040518060400160405280600681526020017f4953535545520000000000000000000000000000000000000000000000000000815250915050610ae4565b8015610aaa576040518060400160405280600781526020017f53545544454e5400000000000000000000000000000000000000000000000000815250915050610ae4565b6040518060400160405280600481526020017f4e4f4e45000000000000000000000000000000000000000000000000000000008152509150505b919050565b600080610af583611cfa565b9050600073ffffffffffffffffffffffffffffffffffffffff168173ffffffffffffffffffffffffffffffffffffffff1603610b66576040517f08c379a0000000000000000000000000000000000000000000000000000000008152600401610b5d906138e0565b60405180910390fd5b80915050919050565b60008073ffffffffffffffffffffffffffffffffffffffff168273ffffffffffffffffffffffffffffffffffffffff1603610bdf576040517f08c379a0000000000000000000000000000000000000000000000000000000008152600401610bd690613972565b60405180910390fd5b600360008373ffffffffffffffffffffffffffffffffffffffff1673ffffffffffffffffffffffffffffffffffffffff168152602001908152602001600020549050919050565b6000600a60008373ffffffffffffffffffffffffffffffffffffffff1673ffffffffffffffffffffffffffffffffffffffff16815260200190815260200160002060030160009054906101000a900460ff169050919050565b7fa49807205ce4d355092ef5a8a18f56e8913cf4a201fbe287825b095693c2177581565b604051602001610cb2906137d0565b6040516020818303038152906040528051906020012083604051602001610cd991906139c3565b6040516020818303038152906040528051906020012003610d2f576040517f08c379a0000000000000000000000000000000000000000000000000000000008152600401610d2690613a26565b60405180910390fd5b604051602001610d3e906137d0565b6040516020818303038152906040528051906020012081604051602001610d6591906139c3565b6040516020818303038152906040528051906020012003610dbb576040517f08c379a0000000000000000000000000000000000000000000000000000000008152600401610db290613a92565b60405180910390fd5b604051806080016040528084815260200183815260200182815260200160001515815250600a60003373ffffffffffffffffffffffffffffffffffffffff1673ffffffffffffffffffffffffffffffffffffffff1681526020019081526020016000206000820151816000019081610e339190613c3f565b506020820151816001019081610e499190613c3f565b506040820151816002019081610e5f9190613c3f565b5060608201518160030160006101000a81548160ff021916908315150217905550905050505050565b7f114e74f6ea3bd819998f78687bfcb11b140da08e9b7d222fa9c1f1ba1f2aa12281565b610ed67fa49807205ce4d355092ef5a8a18f56e8913cf4a201fbe287825b095693c217753361106a565b610f15576040517f08c379a0000000000000000000000000000000000000000000000000000000008152600401610f0c90613d5d565b60405180910390fd5b604051602001610f24906137d0565b60405160208183030381529060405280519060200120600a60008373ffffffffffffffffffffffffffffffffffffffff1673ffffffffffffffffffffffffffffffffffffffff168152602001908152602001600020600001604051602001610f8c919061387d565b6040516020818303038152906040528051906020012003610fe2576040517f08c379a0000000000000000000000000000000000000000000000000000000008152600401610fd990613dc9565b60405180910390fd5b61100c7f114e74f6ea3bd819998f78687bfcb11b140da08e9b7d222fa9c1f1ba1f2aa12282611b37565b6001600a60008373ffffffffffffffffffffffffffffffffffffffff1673ffffffffffffffffffffffffffffffffffffffff16815260200190815260200160002060030160006101000a81548160ff02191690831515021790555050565b60006007600084815260200190815260200160002060000160008373ffffffffffffffffffffffffffffffffffffffff1673ffffffffffffffffffffffffffffffffffffffff16815260200190815260200160002060009054906101000a900460ff16905092915050565b6060600180546110e4906134e4565b80601f0160208091040260200160405190810160405280929190818152602001828054611110906134e4565b801561115d5780601f106111325761010080835404028352916020019161115d565b820191906000526020600020905b81548152906001019060200180831161114057829003601f168201915b5050505050905090565b600860009054906101000a900473ffffffffffffffffffffffffffffffffffffffff1681565b6000801b81565b6111a661119f6116d4565b8383611d37565b5050565b6111bb6111b56116d4565b83611795565b6111fa576040517f08c379a00000000000000000000000000000000000000000000000000000000081526004016111f1906136ab565b60405180910390fd5b61120684848484611ea3565b50505050565b606061121782611689565b6000600660008481526020019081526020016000208054611237906134e4565b80601f0160208091040260200160405190810160405280929190818152602001828054611263906134e4565b80156112b05780601f10611285576101008083540402835291602001916112b0565b820191906000526020600020905b81548152906001019060200180831161129357829003601f168201915b5050505050905060006112c1611eff565b905060008151036112d6578192505050611319565b60008251111561130b5780826040516020016112f3929190613de9565b60405160208183030381529060405292505050611319565b61131484611f16565b925050505b919050565b6113487f114e74f6ea3bd819998f78687bfcb11b140da08e9b7d222fa9c1f1ba1f2aa1223361106a565b611387576040517f08c379a000000000000000000000000000000000000000000000000000000000815260040161137e90613e59565b60405180910390fd5b600073ffffffffffffffffffffffffffffffffffffffff168273ffffffffffffffffffffffffffffffffffffffff16036113f6576040517f08c379a00000000000000000000000000000000000000000000000000000000081526004016113ed90613ec5565b60405180910390fd5b604051602001611405906137d0565b604051602081830303815290604052805190602001208160405160200161142c91906139c3565b6040516020818303038152906040528051906020012003611482576040517f08c379a000000000000000000000000000000000000000000000000000000000815260040161147990613f31565b60405180910390fd5b600061148c611f7e565b90506114988382611fa2565b6114a28183611fc0565b600860009054906101000a900473ffffffffffffffffffffffffffffffffffffffff1673ffffffffffffffffffffffffffffffffffffffff16631c4338a384836040518363ffffffff1660e01b81526004016114ff929190613f51565b600060405180830381600087803b15801561151957600080fd5b505af115801561152d573d6000803e3d6000fd5b50505050505050565b61153f82610810565b61154881611b23565b6115528383611c18565b505050565b7fb19546dff01e856fb3f010c267a7b1c60363cf8a4664e21cc89c26224620214e81565b6000600560008473ffffffffffffffffffffffffffffffffffffffff1673ffffffffffffffffffffffffffffffffffffffff16815260200190815260200160002060008373ffffffffffffffffffffffffffffffffffffffff1673ffffffffffffffffffffffffffffffffffffffff16815260200190815260200160002060009054906101000a900460ff16905092915050565b60007f7965db0b000000000000000000000000000000000000000000000000000000007bffffffffffffffffffffffffffffffffffffffffffffffffffffffff1916827bffffffffffffffffffffffffffffffffffffffffffffffffffffffff19161480611682575061168182612064565b5b9050919050565b611692816120c5565b6116d1576040517f08c379a00000000000000000000000000000000000000000000000000000000081526004016116c8906138e0565b60405180910390fd5b50565b600033905090565b816004600083815260200190815260200160002060006101000a81548173ffffffffffffffffffffffffffffffffffffffff021916908373ffffffffffffffffffffffffffffffffffffffff160217905550808273ffffffffffffffffffffffffffffffffffffffff1661174f83610ae9565b73ffffffffffffffffffffffffffffffffffffffff167f8c5be1e5ebec7d5bd14f71427d1e84f3dd0314c0f7b2291e5b200ac8c7c3b92560405160405180910390a45050565b6000806117a183610ae9565b90508073ffffffffffffffffffffffffffffffffffffffff168473ffffffffffffffffffffffffffffffffffffffff1614806117e357506117e2818561157b565b5b8061182157508373ffffffffffffffffffffffffffffffffffffffff1661180984610653565b73ffffffffffffffffffffffffffffffffffffffff16145b91505092915050565b8273ffffffffffffffffffffffffffffffffffffffff1661184a82610ae9565b73ffffffffffffffffffffffffffffffffffffffff16146118a0576040517f08c379a000000000000000000000000000000000000000000000000000000000815260040161189790613fec565b60405180910390fd5b600073ffffffffffffffffffffffffffffffffffffffff168273ffffffffffffffffffffffffffffffffffffffff160361190f576040517f08c379a00000000000000000000000000000000000000000000000000000000081526004016119069061407e565b60405180910390fd5b61191c8383836001612106565b8273ffffffffffffffffffffffffffffffffffffffff1661193c82610ae9565b73ffffffffffffffffffffffffffffffffffffffff1614611992576040517f08c379a000000000000000000000000000000000000000000000000000000000815260040161198990613fec565b60405180910390fd5b6004600082815260200190815260200160002060006101000a81549073ffffffffffffffffffffffffffffffffffffffff02191690556001600360008573ffffffffffffffffffffffffffffffffffffffff1673ffffffffffffffffffffffffffffffffffffffff168152602001908152602001600020600082825403925050819055506001600360008473ffffffffffffffffffffffffffffffffffffffff1673ffffffffffffffffffffffffffffffffffffffff16815260200190815260200160002060008282540192505081905550816002600083815260200190815260200160002060006101000a81548173ffffffffffffffffffffffffffffffffffffffff021916908373ffffffffffffffffffffffffffffffffffffffff160217905550808273ffffffffffffffffffffffffffffffffffffffff168473ffffffffffffffffffffffffffffffffffffffff167fddf252ad1be2c89b69c2b068fc378daa952ba7f163c4a11628f55a4df523b3ef60405160405180910390a4611b1e8383836001612187565b505050565b611b3481611b2f6116d4565b61218d565b50565b611b41828261106a565b611c145760016007600084815260200190815260200160002060000160008373ffffffffffffffffffffffffffffffffffffffff1673ffffffffffffffffffffffffffffffffffffffff16815260200190815260200160002060006101000a81548160ff021916908315150217905550611bb96116d4565b73ffffffffffffffffffffffffffffffffffffffff168173ffffffffffffffffffffffffffffffffffffffff16837f2f8788117e7eff1d82e926ec794901d17c78024a50270940304540a733656f0d60405160405180910390a45b5050565b611c22828261106a565b15611cf65760006007600084815260200190815260200160002060000160008373ffffffffffffffffffffffffffffffffffffffff1673ffffffffffffffffffffffffffffffffffffffff16815260200190815260200160002060006101000a81548160ff021916908315150217905550611c9b6116d4565b73ffffffffffffffffffffffffffffffffffffffff168173ffffffffffffffffffffffffffffffffffffffff16837ff6391f5c32d9c69d2a47ea670b442974b53935d1edc7fd64eb21e047a839171b60405160405180910390a45b5050565b60006002600083815260200190815260200160002060009054906101000a900473ffffffffffffffffffffffffffffffffffffffff169050919050565b8173ffffffffffffffffffffffffffffffffffffffff168373ffffffffffffffffffffffffffffffffffffffff1603611da5576040517f08c379a0000000000000000000000000000000000000000000000000000000008152600401611d9c906140ea565b60405180910390fd5b80600560008573ffffffffffffffffffffffffffffffffffffffff1673ffffffffffffffffffffffffffffffffffffffff16815260200190815260200160002060008473ffffffffffffffffffffffffffffffffffffffff1673ffffffffffffffffffffffffffffffffffffffff16815260200190815260200160002060006101000a81548160ff0219169083151502179055508173ffffffffffffffffffffffffffffffffffffffff168373ffffffffffffffffffffffffffffffffffffffff167f17307eab39ab6107e8899845ad3d59bd9653f200f220920489ca2b5937696c3183604051611e969190612cc4565b60405180910390a3505050565b611eae84848461182a565b611eba84848484612212565b611ef9576040517f08c379a0000000000000000000000000000000000000000000000000000000008152600401611ef09061417c565b60405180910390fd5b50505050565b606060405180602001604052806000815250905090565b6060611f2182611689565b6000611f2b611eff565b90506000815111611f4b5760405180602001604052806000815250611f76565b80611f5584612399565b604051602001611f66929190613de9565b6040516020818303038152906040525b915050919050565b6000600160096000828254611f9391906141cb565b92505081905550600954905090565b611fbc828260405180602001604052806000815250612467565b5050565b611fc9826120c5565b612008576040517f08c379a0000000000000000000000000000000000000000000000000000000008152600401611fff90614271565b60405180910390fd5b806006600084815260200190815260200160002090816120289190613c3f565b507ff8e1a15aba9398e019f0b49df1a4fde98ee17ae345cb5f6b5e2c27f5033e8ce7826040516120589190613018565b60405180910390a15050565b6000634906490660e01b7bffffffffffffffffffffffffffffffffffffffffffffffffffffffff1916827bffffffffffffffffffffffffffffffffffffffffffffffffffffffff191614806120be57506120bd826124c2565b5b9050919050565b60008073ffffffffffffffffffffffffffffffffffffffff166120e783611cfa565b73ffffffffffffffffffffffffffffffffffffffff1614159050919050565b600073ffffffffffffffffffffffffffffffffffffffff168473ffffffffffffffffffffffffffffffffffffffff1614612175576040517f08c379a000000000000000000000000000000000000000000000000000000000815260040161216c906142dd565b60405180910390fd5b612181848484846125a4565b50505050565b50505050565b612197828261106a565b61220e576121a4816125aa565b6121b28360001c60206125d7565b6040516020016121c3929190614395565b6040516020818303038152906040526040517f08c379a00000000000000000000000000000000000000000000000000000000081526004016122059190612d6f565b60405180910390fd5b5050565b60006122338473ffffffffffffffffffffffffffffffffffffffff16612813565b1561238c578373ffffffffffffffffffffffffffffffffffffffff1663150b7a0261225c6116d4565b8786866040518563ffffffff1660e01b815260040161227e9493929190614424565b6020604051808303816000875af19250505080156122ba57506040513d601f19601f820116820180604052508101906122b79190614485565b60015b61233c573d80600081146122ea576040519150601f19603f3d011682016040523d82523d6000602084013e6122ef565b606091505b506000815103612334576040517f08c379a000000000000000000000000000000000000000000000000000000000815260040161232b9061417c565b60405180910390fd5b805181602001fd5b63150b7a0260e01b7bffffffffffffffffffffffffffffffffffffffffffffffffffffffff1916817bffffffffffffffffffffffffffffffffffffffffffffffffffffffff191614915050612391565b600190505b949350505050565b6060600060016123a884612836565b01905060008167ffffffffffffffff8111156123c7576123c661303d565b5b6040519080825280601f01601f1916602001820160405280156123f95781602001600182028036833780820191505090505b509050600082602001820190505b60011561245c578080600190039150507f3031323334353637383961626364656600000000000000000000000000000000600a86061a8153600a85816124505761244f6144b2565b5b04945060008503612407575b819350505050919050565b6124718383612989565b61247e6000848484612212565b6124bd576040517f08c379a00000000000000000000000000000000000000000000000000000000081526004016124b49061417c565b60405180910390fd5b505050565b60007f80ac58cd000000000000000000000000000000000000000000000000000000007bffffffffffffffffffffffffffffffffffffffffffffffffffffffff1916827bffffffffffffffffffffffffffffffffffffffffffffffffffffffff1916148061258d57507f5b5e139f000000000000000000000000000000000000000000000000000000007bffffffffffffffffffffffffffffffffffffffffffffffffffffffff1916827bffffffffffffffffffffffffffffffffffffffffffffffffffffffff1916145b8061259d575061259c82612ba6565b5b9050919050565b50505050565b60606125d08273ffffffffffffffffffffffffffffffffffffffff16601460ff166125d7565b9050919050565b6060600060028360026125ea91906144e1565b6125f491906141cb565b67ffffffffffffffff81111561260d5761260c61303d565b5b6040519080825280601f01601f19166020018201604052801561263f5781602001600182028036833780820191505090505b5090507f30000000000000000000000000000000000000000000000000000000000000008160008151811061267757612676614523565b5b60200101907effffffffffffffffffffffffffffffffffffffffffffffffffffffffffffff1916908160001a9053507f7800000000000000000000000000000000000000000000000000000000000000816001815181106126db576126da614523565b5b60200101907effffffffffffffffffffffffffffffffffffffffffffffffffffffffffffff1916908160001a9053506000600184600261271b91906144e1565b61272591906141cb565b90505b60018111156127c5577f3031323334353637383961626364656600000000000000000000000000000000600f86166010811061276757612766614523565b5b1a60f81b82828151811061277e5761277d614523565b5b60200101907effffffffffffffffffffffffffffffffffffffffffffffffffffffffffffff1916908160001a905350600485901c9450806127be90614552565b9050612728565b5060008414612809576040517f08c379a0000000000000000000000000000000000000000000000000000000008152600401612800906145c7565b60405180910390fd5b8091505092915050565b6000808273ffffffffffffffffffffffffffffffffffffffff163b119050919050565b600080600090507a184f03e93ff9f4daa797ed6e38ed64bf6a1f0100000000000000008310612894577a184f03e93ff9f4daa797ed6e38ed64bf6a1f010000000000000000838161288a576128896144b2565b5b0492506040810190505b6d04ee2d6d415b85acef810000000083106128d1576d04ee2d6d415b85acef810000000083816128c7576128c66144b2565b5b0492506020810190505b662386f26fc10000831061290057662386f26fc1000083816128f6576128f56144b2565b5b0492506010810190505b6305f5e1008310612929576305f5e100838161291f5761291e6144b2565b5b0492506008810190505b612710831061294e576127108381612944576129436144b2565b5b0492506004810190505b606483106129715760648381612967576129666144b2565b5b0492506002810190505b600a8310612980576001810190505b80915050919050565b600073ffffffffffffffffffffffffffffffffffffffff168273ffffffffffffffffffffffffffffffffffffffff16036129f8576040517f08c379a00000000000000000000000000000000000000000000000000000000081526004016129ef90614633565b60405180910390fd5b612a01816120c5565b15612a41576040517f08c379a0000000000000000000000000000000000000000000000000000000008152600401612a389061469f565b60405180910390fd5b612a4f600083836001612106565b612a58816120c5565b15612a98576040517f08c379a0000000000000000000000000000000000000000000000000000000008152600401612a8f9061469f565b60405180910390fd5b6001600360008473ffffffffffffffffffffffffffffffffffffffff1673ffffffffffffffffffffffffffffffffffffffff16815260200190815260200160002060008282540192505081905550816002600083815260200190815260200160002060006101000a81548173ffffffffffffffffffffffffffffffffffffffff021916908373ffffffffffffffffffffffffffffffffffffffff160217905550808273ffffffffffffffffffffffffffffffffffffffff16600073ffffffffffffffffffffffffffffffffffffffff167fddf252ad1be2c89b69c2b068fc378daa952ba7f163c4a11628f55a4df523b3ef60405160405180910390a4612ba2600083836001612187565b5050565b60007f01ffc9a7000000000000000000000000000000000000000000000000000000007bffffffffffffffffffffffffffffffffffffffffffffffffffffffff1916827bffffffffffffffffffffffffffffffffffffffffffffffffffffffff1916149050919050565b6000604051905090565b600080fd5b600080fd5b60007fffffffff0000000000000000000000000000000000000000000000000000000082169050919050565b612c5981612c24565b8114612c6457600080fd5b50565b600081359050612c7681612c50565b92915050565b600060208284031215612c9257612c91612c1a565b5b6000612ca084828501612c67565b91505092915050565b60008115159050919050565b612cbe81612ca9565b82525050565b6000602082019050612cd96000830184612cb5565b92915050565b600081519050919050565b600082825260208201905092915050565b60005b83811015612d19578082015181840152602081019050612cfe565b60008484015250505050565b6000601f19601f8301169050919050565b6000612d4182612cdf565b612d4b8185612cea565b9350612d5b818560208601612cfb565b612d6481612d25565b840191505092915050565b60006020820190508181036000830152612d898184612d36565b905092915050565b6000819050919050565b612da481612d91565b8114612daf57600080fd5b50565b600081359050612dc181612d9b565b92915050565b600060208284031215612ddd57612ddc612c1a565b5b6000612deb84828501612db2565b91505092915050565b600073ffffffffffffffffffffffffffffffffffffffff82169050919050565b6000612e1f82612df4565b9050919050565b612e2f81612e14565b82525050565b6000602082019050612e4a6000830184612e26565b92915050565b612e5981612e14565b8114612e6457600080fd5b50565b600081359050612e7681612e50565b92915050565b60008060408385031215612e9357612e92612c1a565b5b6000612ea185828601612e67565b9250506020612eb285828601612db2565b9150509250929050565b600080600060608486031215612ed557612ed4612c1a565b5b6000612ee386828701612e67565b9350506020612ef486828701612e67565b9250506040612f0586828701612db2565b9150509250925092565b6000819050919050565b612f2281612f0f565b8114612f2d57600080fd5b50565b600081359050612f3f81612f19565b92915050565b600060208284031215612f5b57612f5a612c1a565b5b6000612f6984828501612f30565b91505092915050565b612f7b81612f0f565b82525050565b6000602082019050612f966000830184612f72565b92915050565b60008060408385031215612fb357612fb2612c1a565b5b6000612fc185828601612f30565b9250506020612fd285828601612e67565b9150509250929050565b600060208284031215612ff257612ff1612c1a565b5b600061300084828501612e67565b91505092915050565b61301281612d91565b82525050565b600060208201905061302d6000830184613009565b92915050565b600080fd5b600080fd5b7f4e487b7100000000000000000000000000000000000000000000000000000000600052604160045260246000fd5b61307582612d25565b810181811067ffffffffffffffff821117156130945761309361303d565b5b80604052505050565b60006130a7612c10565b90506130b3828261306c565b919050565b600067ffffffffffffffff8211156130d3576130d261303d565b5b6130dc82612d25565b9050602081019050919050565b82818337600083830152505050565b600061310b613106846130b8565b61309d565b90508281526020810184848401111561312757613126613038565b5b6131328482856130e9565b509392505050565b600082601f83011261314f5761314e613033565b5b813561315f8482602086016130f8565b91505092915050565b60008060006060848603121561318157613180612c1a565b5b600084013567ffffffffffffffff81111561319f5761319e612c1f565b5b6131ab8682870161313a565b935050602084013567ffffffffffffffff8111156131cc576131cb612c1f565b5b6131d88682870161313a565b925050604084013567ffffffffffffffff8111156131f9576131f8612c1f565b5b6132058682870161313a565b9150509250925092565b6000819050919050565b600061323461322f61322a84612df4565b61320f565b612df4565b9050919050565b600061324682613219565b9050919050565b60006132588261323b565b9050919050565b6132688161324d565b82525050565b6000602082019050613283600083018461325f565b92915050565b61329281612ca9565b811461329d57600080fd5b50565b6000813590506132af81613289565b92915050565b600080604083850312156132cc576132cb612c1a565b5b60006132da85828601612e67565b92505060206132eb858286016132a0565b9150509250929050565b600067ffffffffffffffff8211156133105761330f61303d565b5b61331982612d25565b9050602081019050919050565b6000613339613334846132f5565b61309d565b90508281526020810184848401111561335557613354613038565b5b6133608482856130e9565b509392505050565b600082601f83011261337d5761337c613033565b5b813561338d848260208601613326565b91505092915050565b600080600080608085870312156133b0576133af612c1a565b5b60006133be87828801612e67565b94505060206133cf87828801612e67565b93505060406133e087828801612db2565b925050606085013567ffffffffffffffff81111561340157613400612c1f565b5b61340d87828801613368565b91505092959194509250565b600080604083850312156134305761342f612c1a565b5b600061343e85828601612e67565b925050602083013567ffffffffffffffff81111561345f5761345e612c1f565b5b61346b8582860161313a565b9150509250929050565b6000806040838503121561348c5761348b612c1a565b5b600061349a85828601612e67565b92505060206134ab85828601612e67565b9150509250929050565b7f4e487b7100000000000000000000000000000000000000000000000000000000600052602260045260246000fd5b600060028204905060018216806134fc57607f821691505b60208210810361350f5761350e6134b5565b5b50919050565b7f4552433732313a20617070726f76616c20746f2063757272656e74206f776e6560008201527f7200000000000000000000000000000000000000000000000000000000000000602082015250565b6000613571602183612cea565b915061357c82613515565b604082019050919050565b600060208201905081810360008301526135a081613564565b9050919050565b7f4552433732313a20617070726f76652063616c6c6572206973206e6f7420746f60008201527f6b656e206f776e6572206f7220617070726f76656420666f7220616c6c000000602082015250565b6000613603603d83612cea565b915061360e826135a7565b604082019050919050565b60006020820190508181036000830152613632816135f6565b9050919050565b7f4552433732313a2063616c6c6572206973206e6f7420746f6b656e206f776e6560008201527f72206f7220617070726f76656400000000000000000000000000000000000000602082015250565b6000613695602d83612cea565b91506136a082613639565b604082019050919050565b600060208201905081810360008301526136c481613688565b9050919050565b7f416363657373436f6e74726f6c3a2063616e206f6e6c792072656e6f756e636560008201527f20726f6c657320666f722073656c660000000000000000000000000000000000602082015250565b6000613727602f83612cea565b9150613732826136cb565b604082019050919050565b600060208201905081810360008301526137568161371a565b9050919050565b60008151905061376c81613289565b92915050565b60006020828403121561378857613787612c1a565b5b60006137968482850161375d565b91505092915050565b600081905092915050565b50565b60006137ba60008361379f565b91506137c5826137aa565b600082019050919050565b60006137db826137ad565b9150819050919050565b60008190508160005260206000209050919050565b60008154613807816134e4565b613811818661379f565b9450600182166000811461382c576001811461384157613874565b60ff1983168652811515820286019350613874565b61384a856137e5565b60005b8381101561386c5781548189015260018201915060208101905061384d565b838801955050505b50505092915050565b600061388982846137fa565b915081905092915050565b7f4552433732313a20696e76616c696420746f6b656e2049440000000000000000600082015250565b60006138ca601883612cea565b91506138d582613894565b602082019050919050565b600060208201905081810360008301526138f9816138bd565b9050919050565b7f4552433732313a2061646472657373207a65726f206973206e6f74206120766160008201527f6c6964206f776e65720000000000000000000000000000000000000000000000602082015250565b600061395c602983612cea565b915061396782613900565b604082019050919050565b6000602082019050818103600083015261398b8161394f565b9050919050565b600061399d82612cdf565b6139a7818561379f565b93506139b7818560208601612cfb565b80840191505092915050565b60006139cf8284613992565b915081905092915050565b7f456d707479206e616d652e000000000000000000000000000000000000000000600082015250565b6000613a10600b83612cea565b9150613a1b826139da565b602082019050919050565b60006020820190508181036000830152613a3f81613a03565b9050919050565b7f456d70747920656d61696c2e0000000000000000000000000000000000000000600082015250565b6000613a7c600c83612cea565b9150613a8782613a46565b602082019050919050565b60006020820190508181036000830152613aab81613a6f565b9050919050565b60006020601f8301049050919050565b600082821b905092915050565b600060088302613aff7fffffffffffffffffffffffffffffffffffffffffffffffffffffffffffffffff82613ac2565b613b098683613ac2565b95508019841693508086168417925050509392505050565b6000613b3c613b37613b3284612d91565b61320f565b612d91565b9050919050565b6000819050919050565b613b5683613b21565b613b6a613b6282613b43565b848454613acf565b825550505050565b600090565b613b7f613b72565b613b8a818484613b4d565b505050565b5b81811015613bae57613ba3600082613b77565b600181019050613b90565b5050565b601f821115613bf357613bc4816137e5565b613bcd84613ab2565b81016020851015613bdc578190505b613bf0613be885613ab2565b830182613b8f565b50505b505050565b600082821c905092915050565b6000613c1660001984600802613bf8565b1980831691505092915050565b6000613c2f8383613c05565b9150826002028217905092915050565b613c4882612cdf565b67ffffffffffffffff811115613c6157613c6061303d565b5b613c6b82546134e4565b613c76828285613bb2565b600060209050601f831160018114613ca95760008415613c97578287015190505b613ca18582613c23565b865550613d09565b601f198416613cb7866137e5565b60005b82811015613cdf57848901518255600182019150602085019450602081019050613cba565b86831015613cfc5784890151613cf8601f891682613c05565b8355505b6001600288020188555050505b505050505050565b7f43616c6c6572206973206e6f7420616e2061646d696e2e000000000000000000600082015250565b6000613d47601783612cea565b9150613d5282613d11565b602082019050919050565b60006020820190508181036000830152613d7681613d3a565b9050919050565b7f497373756572206e6f7420726567697374657265642e00000000000000000000600082015250565b6000613db3601683612cea565b9150613dbe82613d7d565b602082019050919050565b60006020820190508181036000830152613de281613da6565b9050919050565b6000613df58285613992565b9150613e018284613992565b91508190509392505050565b7f43616c6c6572206973206e6f7420616e206973737565722e0000000000000000600082015250565b6000613e43601883612cea565b9150613e4e82613e0d565b602082019050919050565b60006020820190508181036000830152613e7281613e36565b9050919050565b7f43616e6e6f74206d696e7420746f203020616464726573732e00000000000000600082015250565b6000613eaf601983612cea565b9150613eba82613e79565b602082019050919050565b60006020820190508181036000830152613ede81613ea2565b9050919050565b7f456d707479205552492e00000000000000000000000000000000000000000000600082015250565b6000613f1b600a83612cea565b9150613f2682613ee5565b602082019050919050565b60006020820190508181036000830152613f4a81613f0e565b9050919050565b6000604082019050613f666000830185612e26565b613f736020830184613009565b9392505050565b7f4552433732313a207472616e736665722066726f6d20696e636f72726563742060008201527f6f776e6572000000000000000000000000000000000000000000000000000000602082015250565b6000613fd6602583612cea565b9150613fe182613f7a565b604082019050919050565b6000602082019050818103600083015261400581613fc9565b9050919050565b7f4552433732313a207472616e7366657220746f20746865207a65726f2061646460008201527f7265737300000000000000000000000000000000000000000000000000000000602082015250565b6000614068602483612cea565b91506140738261400c565b604082019050919050565b600060208201905081810360008301526140978161405b565b9050919050565b7f4552433732313a20617070726f766520746f2063616c6c657200000000000000600082015250565b60006140d4601983612cea565b91506140df8261409e565b602082019050919050565b60006020820190508181036000830152614103816140c7565b9050919050565b7f4552433732313a207472616e7366657220746f206e6f6e20455243373231526560008201527f63656976657220696d706c656d656e7465720000000000000000000000000000602082015250565b6000614166603283612cea565b91506141718261410a565b604082019050919050565b6000602082019050818103600083015261419581614159565b9050919050565b7f4e487b7100000000000000000000000000000000000000000000000000000000600052601160045260246000fd5b60006141d682612d91565b91506141e183612d91565b92508282019050808211156141f9576141f861419c565b5b92915050565b7f45524337323155524953746f726167653a2055524920736574206f66206e6f6e60008201527f6578697374656e7420746f6b656e000000000000000000000000000000000000602082015250565b600061425b602e83612cea565b9150614266826141ff565b604082019050919050565b6000602082019050818103600083015261428a8161424e565b9050919050565b7f4e6f207065726d697373696f6e20746f207472616e736665722e000000000000600082015250565b60006142c7601a83612cea565b91506142d282614291565b602082019050919050565b600060208201905081810360008301526142f6816142ba565b9050919050565b7f416363657373436f6e74726f6c3a206163636f756e7420000000000000000000600082015250565b600061433360178361379f565b915061433e826142fd565b601782019050919050565b7f206973206d697373696e6720726f6c6520000000000000000000000000000000600082015250565b600061437f60118361379f565b915061438a82614349565b601182019050919050565b60006143a082614326565b91506143ac8285613992565b91506143b782614372565b91506143c38284613992565b91508190509392505050565b600081519050919050565b600082825260208201905092915050565b60006143f6826143cf565b61440081856143da565b9350614410818560208601612cfb565b61441981612d25565b840191505092915050565b60006080820190506144396000830187612e26565b6144466020830186612e26565b6144536040830185613009565b818103606083015261446581846143eb565b905095945050505050565b60008151905061447f81612c50565b92915050565b60006020828403121561449b5761449a612c1a565b5b60006144a984828501614470565b91505092915050565b7f4e487b7100000000000000000000000000000000000000000000000000000000600052601260045260246000fd5b60006144ec82612d91565b91506144f783612d91565b925082820261450581612d91565b9150828204841483151761451c5761451b61419c565b5b5092915050565b7f4e487b7100000000000000000000000000000000000000000000000000000000600052603260045260246000fd5b600061455d82612d91565b9150600082036145705761456f61419c565b5b600182039050919050565b7f537472696e67733a20686578206c656e67746820696e73756666696369656e74600082015250565b60006145b1602083612cea565b91506145bc8261457b565b602082019050919050565b600060208201905081810360008301526145e0816145a4565b9050919050565b7f4552433732313a206d696e7420746f20746865207a65726f2061646472657373600082015250565b600061461d602083612cea565b9150614628826145e7565b602082019050919050565b6000602082019050818103600083015261464c81614610565b9050919050565b7f4552433732313a20746f6b656e20616c7265616479206d696e74656400000000600082015250565b6000614689601c83612cea565b915061469482614653565b602082019050919050565b600060208201905081810360008301526146b88161467c565b905091905056fea264697066735822122020e323a70257dc9a1c2ea0727d348548d8e8d7352cf4a5c13cfecc60eac5a56c64736f6c63430008130033",
  "linkReferences": {},
  "deployedLinkReferences": {}
}